:100000000C9484040C94A1040C94A1040C94A104F9
:100010000C94A1040C94A1040C94A1040C94A104CC
:100020000C94A1040C94A1040C9472300C944431EF
:100030000C94E7280C94A1040C94A1040C94A10442
:100040000C94A1040C94A1040C94A1040C94A1049C
:100050000C94A1040C944F290C94A1040C94A104B9
:100060000C94A1040C94A1040C94A1040C94A1047C
:100070000C94A1040C94A1040C94A1040C94A1046C
:100080000C94A1040C94A1040C94A1040C94A1045C
:100090000C94A1040C94A1040C94A1040C94A1044C
:1000A0000C94A1040C94A1040C94A104F904FC0484
:1000B000FF040205050508050B05000805080F08E3
:1000C000030808080D080B0853095509600957096A
:1000D00059095B095D095F096209640966097109CB
:1000E00068096A096C096E0970097309F815FB152E
:1000F000FE150116041607160A160D16101613160D
:100100001616391E391E6B1E6B1EA21EC21E2B2018
:100110008920041F8920B11FB11F22208920892036
:100120008320BE1FBE1FBE1FBE1FBE1FBE1FBE1F21
:10013000BE1FBE1FBE1FBE1FBE1FBE1FBE1FBE1FD7
:10014000BE1FCF1FDC1FE31FEA1FF41F162116215D
:10015000282128211F212821282128211621162184
:100160002421282128212421B131D831CA32D83183
:10017000CA3224324732CA329D32AC3205A84CCD45
:10018000B2D44EB93836A9020C50B9918688083CD1
:10019000A6AAAA2ABE000000803F6572676F646F3E
:1001A000785F657A2F65663339353032636565630C
:1001B000313231343430386532204020302E362E02
:1001C0003232302D362D673438346338352D64693A
:1001D000727479000000F0A100000000000000002F
:1001E000000000000000000000000000000000000F
:1001F00000000000000000000000000000000000FF
:1002000000000000000000000000000000000000EE
:1002100000000000000000000000000000000000DE
:1002200000000000000000000000000000000000CE
:1002300000000000000000000000000000000000BE
:1002400000000000000000000000000000000000AE
:10025000000000000000000000000000000000009E
:10026000000000000000000000000000000000008E
:100270000000000000000069FFFF9AFFFF9AFFFFE7
:100280009AFFFF0EFFFF69FFFF9AFFFF9AFFFF9A99
:10029000FFFF0EFFFF0EFFFF9AFFFF9AFFFF9AFF7F
:1002A000FF0EFFFF0000000000009AFFFF0EFFFF9F
:1002B0000000000000000000000000000000000E30
:1002C000FFFF0EFFFF0EFFFF0EFFFF0EFFFF0EFFF3
:1002D000FF0EFFFF0EFFFF0EFFFF0EFFFF0EFFFFE3
:1002E0000EFFFF0EFFFF0EFFFF0EFFFF00000000DE
:1002F00000000000000000000000000000000000FE
:1003000000000000F9E4FF00000000000069FFFFAA
:1003100000000000000000000069FFFF69FFFF69A6
:10032000FFFF0000000000000000000000000000CF
:100330000023FFFF0000000000000000009AFFFF04
:1003400000000000000000000000000000000000AD
:10035000000069FFFFF9E4FF69FFFF0000000000F3
:1003600000F9E4FFF9E4FFF9E4FF000000000000F9
:10037000000000000000000000000000000000007D
:10038000000000000000000029002B00E100E10057
:10039000006300001E00140004001D00090051004D
:1003A0001F001A0016001B00E0002C0020000800AF
:1003B00007000600E2002C002100150009001900CA
:1003C000E3005200220017000A000500000001515E
:1003D00023002F000000E300000002512400300041
:1003E000000002510000500025001C000B0011000D
:1003F00000004F00260018000D00100035005200CC
:1004000027000C000E003600340028002D001200DA
:100410000F0037002F0028002E0013003300380093
:10042000300051002A0031003400E500E7000000F0
:100430002900010001000100010000003A001E0235
:10044000200222020100E75C3B001F02210223027E
:100450000100C95C3C002F0226022F000100CA5C8B
:100460003D003002270230000100C35C3E00310233
:1004700035003502000001002D00010000000100E0
:100480000000C25C2E020100000001000000E85CD8
:100490003F005200510024020000C25C40002400D2
:1004A00021001E000100E95C4100250022001F0020
:1004B0003700C55C42002600230020002700C65CF0
:1004C000430025022E0231002E00EA5C4400450064
:1004D0000100010001000000290001000100E1000D
:1004E0000100000001000100010001000100010005
:1004F0000100F900F20001000100F4000100F00029
:10050000F100F1000100F5000100FA00F300010024
:100510000100010001000100010001000000E304EE
:10052000010001000000E1000000010001000100E5
:10053000000001000000A90001000100010001000D
:100540000000E30401000100500001000100AA00C6
:10055000010052005100510001004800010001005B
:100560004F0001000100AE004C0001000100A60098
:100570006600A800010001000100E5000100000084
:1005800000000000000000002A2B280000000000EE
:100590000000000000000000000000290000000032
:1005A0002C1E3420212224342627252E362D3738A0
:1005B000271E1F202122232425263333362E3738A9
:1005C0001F0405060708090A0B0C0D0E0F10111267
:1005D000131415161718191A1B1C1D2F3130232D33
:1005E000350405060708090A0B0C0D0E0F10111231
:1005F000131415161718191A1B1C1D2F3130354CE2
:1006000000000000000000000000000000000000EA
:1006100000000000000000000000000000000000DA
:1006200000010101010101000101010100000000C0
:1006300000000000000000000000010001000101B6
:10064000010101010101010101010101010101019A
:10065000010101010101010101010100000001018D
:10066000000000000000000000000000000000008A
:100670000000000000000000000000010101010076
:10068000000000000001010101010101010102025D
:100690000202020202020203030303030303030430
:1006A00004040404040505050505060606060607F8
:1006B000070707080808080909090A0A0A0A0B0BAC
:1006C0000B0C0C0C0D0D0D0E0E0F0F0F1010111149
:1006D00011121213131414151516161717181819CA
:1006E000191A1A1B1C1C1D1D1E1F1F20202122222F
:1006F0002324252526272728292A2B2B2C2D2E2F6E
:100700002F30313233343536363738393A3B3C3D89
:100710003E3F4041424344464748494A4B4C4D4F77
:1007200050515253555657585A5B5C5E5F60626336
:10073000646667696A6C6D6E707173747678797BC4
:100740007C7E8081838486888A8B8D8F919294961B
:10075000989A9B9D9FA1A3A5A7A9ABADAFB1B3B537
:10076000B7B9BBBDBFC1C4C6C8CACCCFD1D3D6D818
:10077000DADCDFE1E4E6E8EBEDF0F2F5F7FAFCFFB6
:1007800004033000000016034500720067006F008C
:1007900044006F007800200045005A000000160356
:1007A0004500720067006F0044006F007800200071
:1007B00045005A0000000403090409023B0002013D
:1007C00000A0FA0904000001030101000921110140
:1007D00000012240000705810308000A0904010006
:1007E000010300000009211101000122C0000705DA
:1007F000820320000A1201100100000008EDFE072C
:100800001301000102030105010902A1018502098A
:1008100001A1000509190129051500250195057596
:100820000181029501750381010501093009311526
:1008300081257F95027508810609381581257F95E8
:100840000175088106050C0A38021581257F95017E
:1008500075088106C0C005010980A1018503160144
:10086000002603001A81002A83007510950181007B
:10087000C0050C0901A1018504160100269C021A7D
:1008800001002A9C02751095018100C0050109062E
:10089000A1018505050719E029E71500250195083F
:1008A0007501810205081901290595057501910257
:1008B0009501750391010507190029EF1500250120
:1008C00095F075018102C005010906A1010507190E
:1008D000E029E7150025019508750181029501754C
:1008E00008810105081901290595057501910295F1
:1008F00001750391010507190029FF150026FF0066
:10090000950675088100C00011241FBECFEFDAE004
:10091000DEBFCDBF13E0A0E0B1E0E4EBFDE602C036
:1009200005900D92AA34B107D9F726E0AAE4B3E006
:1009300001C01D92A936B207E1F70E94962D0C94D2
:10094000D8360C94000080B38C7080BB81B3836F69
:1009500081BB089584B1807F84B985B1807F85B9DA
:100960008AB1837F8AB98BB1837F8BB93E984698D1
:100970000895CF93E82F873090F5809104019091EE
:100980000501892B09F049C0CE2F64E670E080E4B0
:100990000E94B9199093050180930401892BD1F429
:1009A00064E670E082E10E94101A90930501809342
:1009B0000401892B79F481E090E001C0880FCA9589
:1009C000EAF764E670E080950E94101A90930501A2
:1009D0008093040184E690E0CF910C94651A90E036
:1009E000FC013797E730F105C0F4EA5AFF4F0C9449
:1009F000CB35209A289811C0219A29980EC0229AA6
:100A00002A980BC0239A2B9808C0529A5A9805C06E
:100A1000539A5B9802C03E9A4698CF9108950895E4
:100A20000C940F05CF93DF930E94A10690E0909362
:100A30000501809304010E94AA040E94A304AFE967
:100A4000B3E02BE433E0EDEAF3E04EE04E0F119219
:100A50001D9280E090E0E901C80FD91F188201962D
:100A600086309105C1F72A5F3F4F4E13F0CFDF91DB
:100A7000CF910C9478080E94A10690E09093050114
:100A8000809304010E94AA040E94A304EDEAF3E00B
:100A90008EE08E0F11928E13FDCF0895CF93DF93CA
:100AA000E62FF0E0E156FC4F40814827808386E046
:100AB000689FF0011124E55BFC4F20E030E080E00E
:100AC00061E070E050E0A7E0B22F9081992319F027
:100AD0009150908307C0EB01022E01C0CC0F0A9405
:100AE000EAF78C2BEA0102C0D595C795BA95E2F7D3
:100AF000C0FDA0832F5F3F4F31962630310521F78F
:100B0000DF91CF910895CF93DF93D82F873008F0EE
:100B100040C08091040190910501892B09F042C0E9
:100B200064E670E080E40E94B91990930501809317
:100B30000401892B11F0C0E027C064E670E083E176
:100B40000E94101A9093050180930401892B99F754
:100B500064E670E081E40E94B919909305018093E6
:100B60000401892B41F784E690E00E94401A97FF28
:100B700005C09093050180930401DDCFC82FC09577
:100B8000109205011092040184E690E00E94651A1B
:100B90000AC09FB1CFB1C07FC695C6959370C92BCF
:100BA000C09501C0C0E06D2F8C2F0E944E05282FEC
:100BB0002095ED2FF0E0E355FC4F908192238C239C
:100BC000892BDF91CF910895EF92FF920F931F939E
:100BD000CF93DF938091040190910501892B91F0CF
:100BE00080914A038F5F80934A0381110BC00E945A
:100BF000A10690E09093050180930401892B11F4E4
:100C00000E9433068DEAE82E83E0F82E04EB13E011
:100C1000C0E08C2F0E94B904D7E0DC0F8D2F0E941A
:100C2000B9048C2F0E948305F70181937F018D2FDA
:100C30000E948305F80181938F010E94AA04CF5F6F
:100C4000C73039F70E94840881E0DF91CF911F916E
:100C50000F91FF90EF900895E82FF0E0E355FC4FDF
:100C600080810895089556985E9825982D98269825
:100C70002E9827982F988FEF90E09093890080937B
:100C8000880090938B0080938A0090938D008093CE
:100C90008C00259A2D9A2FEF80E792E0215080401A
:100CA0009040E1F700C00000269A2E9A2FEF80E7CF
:100CB00092E0215080409040E1F700C00000279A68
:100CC0002F9A2FEF80E792E0215080409040E1F78B
:100CD00000C0000025982D982FEF80E792E021506A
:100CE00080409040E1F700C0000026982E982FEF3A
:100CF00080E792E0215080409040E1F700C0000082
:100D000027982F9856985E9825982D9826982E9873
:100D100027982F98089589EA8093800089E080932E
:100D2000810024982C983F988AB18F7C8AB96E985C
:100D3000479A8BB180638BB9769A0E9433060C94E4
:100D40001C0780E290E0909305018093040180915C
:100D5000BB0381110EC00E94B31981E08093BB03D5
:100D60002FEF83ED90E3215080409040E1F700C0E9
:100D7000000064E670E080E40E94B91990930501D8
:100D800080930401892B09F050C064E670E080E094
:100D90000E94101A9093050180930401892B09F099
:100DA00044C064E670E080E00E94101A9093050150
:100DB00080930401892BC9F564E670E08FE30E94FB
:100DC000101A9093050180930401892B71F584E634
:100DD00090E00E94651A64E670E080E40E94B91910
:100DE0009093050180930401892BF9F464E670E087
:100DF0008CE00E94101A9093050180930401892BC6
:100E0000A1F464E670E080E00E94101A909305015E
:100E100080930401892B49F464E670E08FE30E941B
:100E2000101A909305018093040184E690E00E94DB
:100E3000651A80910401089580E190E00E943536A2
:100E40006093E7047093E8048093E9049093EA04C4
:100E50000895AF92BF92CF92DF92EF92FF920F93DD
:100E60001F93CF93DF9320E9289F7001299FF00CF7
:100E70001124C0E0D0E000E010E0670182E0C80E7D
:100E8000D11C57018FEFA81AB80AF601EC0FFD1F0D
:100E9000E852FE4F8491FE01EE0DFF1DE852FE4F19
:100EA0006491F501EC0FFD1FE852FE4F7491882309
:100EB00019F08091EA0401C080E00E94940E472F4F
:100EC000282FC8010E94490F0F5F1F4F2396003340
:100ED0001105D9F6DF91CF911F910F91FF90EF90FF
:100EE000DF90CF90BF90AF9008950E94831781301C
:100EF000B1F460918A0470918B0480918C0490917C
:100F00008D040E944727813019F0823021F0089526
:100F100081E090E002C082E090E00C9429070895FF
:100F2000611108C0FC018281882321F08AE991E0E7
:100F30000E94750880E090E00895FB01883E2CE552
:100F40009207F1F040F4863E2CE5920761F0873E6F
:100F50009C4579F039C0893E2CE59207E1F08A3E44
:100F60009C4521F131C08281882379F10E940528B6
:100F700029C08281882349F181E00E94741722C030
:100F80008281882311F181E00E9474174FEF6FEF87
:100F900080E090E015C082818823B9F081E00E9452
:100FA00074174FEF6FEF8CEA90E00AC082818823BC
:100FB00061F081E00E94741740E86FEF87ED90E0E8
:100FC0000E94881780E0089581E00895CF92DF9213
:100FD000EF92FF926B017C010E94472756985E9822
:100FE00025982D9826982E9827982F9890E0FC0108
:100FF0003197E730F105A8F4E35AFF4F0C94CB3555
:10100000259A2D9A0EC0259A2D9A269A2E9A09C0B5
:10101000259A2D9A04C0259A2D9A269A2E9A279AB7
:101020002F9AC701B601FF90EF90DF90CF900895FF
:1010300081E008950C949D07CF93282F30E0F901AB
:10104000E058FA4FC491F901E050FA4F249122235D
:1010500059F081EE0E94691C8C2F0E94691C8C2F14
:101060000E94871D81EE04C08C2F0E94691C8C2F6A
:10107000CF910C94871D0F931F93CF93DF93EC01B7
:10108000062FFE018491882359F19E012F5F3F4F67
:10109000813041F4E901F9011491812F0E94691C0A
:1010A000812F0DC0823031F4E901F90184910E9451
:1010B000691C0AC0833031F4E901F90184910E946E
:1010C000871D02C00E941C082196802F8823C9F228
:1010D000EFE9FFE03197F1F700C000008150F6CF53
:1010E000DF91CF911F910F91089560E00C943B0820
:1010F0000E949727811102C00E9405280E941A169B
:101100000E94E40D0C948B060E947C158091BC0318
:10111000811102C00E94440F8091BC0390E00196AF
:101120006BE070E00E94B7358093BC030C9410050F
:10113000282F2F7041F0822F90E02A3010F44D9626
:1011400008950697089587E290E0089508950C9415
:10115000A6080C94A70808950E9404210E94AB08D9
:101160002FEF84E39CE0215080409040E1F700C0E5
:1011700000000C947529FF920F931F93CF93DF9378
:101180008C01FC01C081D18180911804811113C0B0
:101190008281882349F0CE010E943726F82E682FDD
:1011A000CE010E94DA2504C0CE010E940A26F82E44
:1011B000BE018F2D04C0CE010E943726BE010E94C1
:1011C000560BEC01B8010E941A08882309F466C284
:1011D000B801CE010E945F0E882309F45FC2CC3CA7
:1011E000FCE5DF0741F4F8018281882309F456C247
:1011F0000E945B1753C2CD3C8CE5D80708F01EC196
:10120000C43C9CE5D90761F4F8018281882309F484
:1012100045C20E9408278272E1F40E9470163EC205
:10122000C53CECE5DE0708F0C7C0C531FCE5DF07CB
:1012300098F0C23CFCE5DF0709F48CC008F492C0CA
:10124000F8018281882309F429C20E94082782724A
:1012500021F70E94561622C2C2308CE5D80708F446
:1012600052C0F8018281882309F459C00E9497274F
:10127000811102C00E9405280E94AA2790E0909345
:101280005B0680935A06FE01E350FC45E231F1050E
:1012900030F4EC59FF4F80915A060C94CB35809175
:1012A0005A06816027C0826025C0846023C08061A7
:1012B00021C080621FC080641DC080681BC0846024
:1012C000886018C08E7F16C08D7F14C08B7F12C0BF
:1012D0008F7E10C08F7D0EC08F7B0CC08F770AC0B1
:1012E0008B7F877F07C087FB222720F991E0922719
:1012F00090FB87F980935A0680915A060E94AE2788
:101300000E940421CBC1C1159CE5D90781F0C130F1
:10131000DC45A9F081E08093C2038093C303C80138
:10132000DF91CF911F910F91FF900C941808F80155
:101330008281882309F4B2C10E94AC08AFC1F801D0
:101340008281882309F4AAC18091B70481608093C7
:10135000B704A4C1F8018281882309F49FC10E94C7
:1013600048169CC1C631DC45A9F60E940827282FE3
:10137000F80182814091080150910901882379F098
:101380002A7A91E009F490E09093BD03911102C094
:1013900069E201C065E3CA010E946C280AC080911D
:1013A000BD03811102C069E201C065E3CA010E9468
:1013B00077280E94D52672C1F8018281C83CFCE5DD
:1013C000DF0731F4882309F469C10E94FC1666C165
:1013D000C93C9CE5D907C8F4C63CECE5DE0731F40E
:1013E000882309F45BC10E94B61658C1C73CDC458E
:1013F00030F4882309F452C10E948A164FC1882311
:1014000009F44CC10E94E61649C1CA3C9CE5D907C3
:1014100031F4882309F442C10E942C173FC1CB3C10
:10142000DC4530F4882309F439C10E94161736C10F
:10143000882309F433C10E94461730C1C43DFCE53E
:10144000DF0791F4F8018281882309F427C10E9403
:101450008317893128F00E948317823208F4F9CE6D
:1014600089E10E9474171AC1C53D8CE5D80708F0C0
:1014700068C0F8018281C03DFCE5DF0771F4882374
:1014800009F40CC10E948317893028F00E94831749
:101490008E3008F4DECE89E0E4CFC13D9CE5D9076B
:1014A00040F5CE3CECE5DE0771F4882309F4F6C084
:1014B0000E948317823028F00E948317853008F439
:1014C000C8CE82E0CECFCF3CDC4528F4882309F497
:1014D000E5C081E0C6CF882309F4E0C00E948317ED
:1014E000863028F00E948317883008F4B2CE86E058
:1014F000B8CFC23D9CE5D90771F4882309F4CEC06A
:101500000E948317853128F00E948317873108F4E1
:10151000A0CE85E1A6CFC33DDC4570F4882309F455
:10152000BDC00E9483178F3028F00E94831784313A
:1015300008F48FCE8FE095CF882309F4AFC088E1FF
:1015400090CFC83DFCE5DF0759F5F801828188237B
:1015500061F01092C3030E9419299093C1038093F4
:10156000C00380E20E94F71D99C08091C3038823C5
:1015700021F080E20E94FE1D91C08091C0039091F5
:10158000C1030E942529883C910598F780E20E94BA
:10159000FE1D88E20E94691C88E20E94871D7EC0B1
:1015A000C93D8CE5D80708F058C0F8018281C63DD6
:1015B000FCE5DF0751F5882351F01092C2030E9429
:1015C00019299093BF038093BE0382E0CBCF0E9482
:1015D000082785FF05C081E08093C2038093C30381
:1015E0008091C20381110FC08091BE039091BF030F
:1015F0000E942529883C910530F486E20E94691CEE
:1016000086E20E94871D82E0B5CFC73DDC4528F405
:10161000882309F443C083E224CF81119ACF0E942A
:10162000082781FF05C081E08093C2038093C30334
:101630008091C30381119DCF8091C0039091C1031C
:101640000E942529883C910508F093CF87E20E94EB
:10165000691C87E20E94871D8CCFCC3DECE5DE073C
:1016600041F4F80182818823C9F082E00E94352E7E
:1016700015C0CD3DFCE5DF0739F4F80182818823F0
:1016800069F00E9405280AC0CB3DDC4509F042CE36
:10169000F8018281882311F080E0E8CF80E0DF91BB
:1016A000CF911F910F91FF900895089596E0799F33
:1016B000F001112494E5899FE00DF11D1124E60F3E
:1016C000F11DEE0FFF1FE857FC4F8591949108958F
:1016D000880F991FFC01EC52FE4F8591949108955B
:1016E000CF93DF930E94560B0E942D0DEC018115C4
:1016F00020E59207F0F5811530E4930708F029C141
:10170000883E910500F5803E910508F0A2C1883A17
:10171000910570F4853A910508F0A3C081309105D8
:1017200009F497C108F448C1049708F092C144C174
:101730008F3B910508F4A0C0803C910508F43CC1A2
:10174000805C9109F8C08115904258F4C11581E080
:10175000D80708F07EC1C03FD10508F42DC1D0657F
:1017600078C1C11590E3D90708F0E9C0CE019F7098
:10177000E2C0811525E5920708F043C0811534E5E4
:10178000930708F0FDC0811542E5940708F5C115DF
:1017900081E5D80708F0E0C02C2F237081E090E0AD
:1017A00002C0880F991F2A95E2F79C689E0174E099
:1017B000369527957A95E1F72370922BCF70C695D1
:1017C000C69540E2C49FE0011124C82BD92B41C12A
:1017D000869586959E0123703327C115D34508F061
:1017E000C0C040E2849FC0011124C1E0D0E002C02B
:1017F000CC0FDD1F2A95E2F78C2B9D2BEC01DC68CA
:1018000028C181152AE5920798F4811539E59307D7
:1018100008F0C1C08115964508F4B7C0C11588E528
:10182000D80708F4C9C0DC2FCC27C06FD06A11C11B
:10183000C1159BE5D90708F4BFC0C1152CE5D20737
:1018400008F4B7C0CE0190568115904208F0B4C09C
:101850008D2F8F710E94AA0DDD27D0628F71D82B3A
:10186000F8C0853A910509F4AAC0863A910509F0B5
:10187000A9C0C2E8D0E4EDC0883A910509F4A5C03A
:10188000893A910509F4A4C08A3A910509F4A3C0E4
:101890008B3A910509F4A2C08C3A910509F4A1C0D4
:1018A0008B3B910509F4A0C08C3B910509F49FC0C6
:1018B0008D3A910509F49EC0803B910509F49DC0C5
:1018C0008E3A910509F49CC08F3A910509F49BC0AA
:1018D000813B910509F49AC0823B910509F499C0B6
:1018E000833B910509F498C0843B910509F497C0A6
:1018F000853B910509F496C0863B910509F495C096
:10190000873B910509F494C0883B910509F493C085
:10191000893B910509F492C08D3B910509F491C072
:101920008E3B910509F490C08A3B910509F48FC064
:10193000C0E0D4E48EC00E94680BEC018AC0CE01E6
:101940009927D3FF03C0EC01D86C83C0EC01D06CA5
:1019500080C0DF70D06A7DC0DC2FCC27C16FD06A19
:1019600078C040E2849FC0011124C1E0D0E002C0F1
:10197000CC0FDD1F2A95E2F7C82BD92BDA6869C096
:10198000D82FCC27C46FD06A64C0CF71DD27DC2F7D
:10199000CC27D0625EC08F70806E90E0906A24E0A9
:1019A000D695C7952A95E1F7CF709C013C2BE901AC
:1019B00050C0DD27D0664DC0C0E0D0E04AC0C1E8CD
:1019C000D0E447C0C3E8D0E444C0C2EED4E441C090
:1019D000C9EED4E43EC0CAEED4E43BC0C5EBD4E4C7
:1019E00038C0C6EBD4E435C0C3EBD4E432C0C4EB9A
:1019F000D4E42FC0C7EBD4E42CC0CCECD4E429C091
:101A0000CDECD4E426C0C3E8D5E423C0CAE8D5E4CD
:101A100020C0C2E9D5E41DC0C4E9D5E41AC0C1E2C2
:101A2000D6E417C0C3E2D6E414C0C4E2D6E411C0C1
:101A3000C5E2D6E40EC0C6E2D6E40BC0C7E2D6E4E7
:101A400008C0CFE6D4E405C0C0E7D4E402C0CAE2CF
:101A5000D6E4CE01DF91CF9108958238910549F106
:101A6000B0F48133910509F458C048F489329105E6
:101A700009F44EC08A32910509F454C008958533A3
:101A8000910509F440C08933910599F00895833E8A
:101A9000910529F138F4803E910591F0823E91053F
:101AA000A1F00895863E9105F9F0873E910531F148
:101AB000089520915A0620FD3AC021FD38C00895AE
:101AC00080915A0680FD35C032C080915A0682FF4F
:101AD00032C080915A0684FD30C083EE39C08091B7
:101AE0005A0682FD28C0F5CF80915A0683FF27C091
:101AF00080915A0684FD21C087EE2AC080915A0643
:101B000083FD1DC0F5CF80915A0685FD1AC01BC00C
:101B100080915A0685FD17C014C080915A0686FD33
:101B200014C015C080915A0686FD11C00EC080EE0B
:101B30000FC089E30DC082EE0BC080E009C086EEC5
:101B400007C089E205C085E303C08AE201C081E3E2
:101B500090E0089590915A0692FF0DC0282F2871A9
:101B6000283019F4877F846006C0282F2471243020
:101B700011F48B7F886093FF0DC0282F28712831C6
:101B800019F4877E846106C0282F2471243111F452
:101B90008B7E886194FD877E0895CF93DF9381309B
:101BA00020E8920768F0FB012281222349F0EC0132
:101BB0000E94FA0DCE019F770E94420E0E942F0EC6
:101BC00081E0DF91CF9108958CE090E00E942D3666
:101BD00090E0A0E0B0E08093EC049093ED04A0933B
:101BE000EE04B093EF0408956091EC048CE090E073
:101BF0000C9441360E9408278093C4030E941B273F
:101C00008091EC04813071F048F08230D9F084305A
:101C1000F9F486EE0E94EF1D88E118C082EE0E9462
:101C2000691C16C080EE0E94691C81EE0E94691C2E
:101C300088E10E94EF1D81EE0E94871D80EE0E94C8
:101C4000871D06C082EE0E94691C87E50E94EF1D79
:101C50008FE39CE90197F1F700C00000089580919F
:101C6000EC04813021F038F0823029F007C08CE29A
:101C70000E94EF1D03C082EE0E94871D8091C40365
:101C80000C9418270F931F93CF93DF938C01CCE014
:101C9000D0E0C8010C2E02C0969587950A94E2F711
:101CA0008F700E9498080E94EF1D2497CC3F8FEF01
:101CB000D80779F7DF91CF911F910F9108950F9376
:101CC0001F93CF93DF93EC018B01FB01828188236B
:101CD00019F1C23EFCE5DF07C1F050F4C03EECE56F
:101CE000DE0781F0C13EFCE5DF07B1F481E010C002
:101CF000C33E8CE5D80759F0C43EECE5DE0761F43D
:101D000084E006C01092EC0405C082E001C083E0CC
:101D10008093EC040E94F40DB801CE01DF91CF91C5
:101D20001F910F910C94CD0DCF92DF92EF92FF9205
:101D30000F931F93CF93DF93E82FF82F711103C0F8
:101D4000682F782F7EC0062F10E0C72FD0E0E82E36
:101D5000F12CC8016BE270E00E94A3359B0145EDB8
:101D60004203B001439F700D1124060F171F86E038
:101D7000809FB001819F700D11244FEF50E0CA0188
:101D80008C1B9D0B8E9DD0018F9DB00D9E9DB00D27
:101D900011248B2F6C9F80016D9F100D7C9F100D67
:101DA0001124012F11276A01C01AD10ACE9C80018B
:101DB000CF9C100DDE9C100D11246A01C61AD70AA3
:101DC000CC9EB001CD9E700DDC9E700D1124672F4E
:101DD0007727461B570B4E9DE0014F9DD00D5E9D12
:101DE000D00D11247D2F2230310599F04CF42115AE
:101DF0003105C9F021303105A1F47E2FE12F13C048
:101E00002330310551F02430310559F4ED2F7B2F6B
:101E100006C0EB2F8D2F7F2F06C0712FEB2F8F2F3A
:101E200002C07B2F812FF0E0E058F94F6491E72F3B
:101E3000F0E0E058F94F7491E82FF0E0E058F94FE6
:101E40008491DF91CF911F910F91FF90EF90DF90E0
:101E5000CF90089580E190E00C943536AB01BC0141
:101E600080E190E00C945336E7EEF4E08DE080835F
:101E70001092E8048FEF82838383148260817181E2
:101E8000828193810C942E0FE0914803F0914903D5
:101E90000994E0914403F09145030994E0914603CD
:101EA000F0914703099440E060E080E00C944E0F0D
:101EB000E7EEF4E06081862F881F8827881F6091F5
:101EC000E804660F682B728183810E94940E962F1E
:101ED000672F482F892F0C944E0FDF92EF92FF92BD
:101EE0000F931F93CF93DF938091E704881F882778
:101EF000881F9091E804492F440F242F282B97FB2B
:101F0000332730F9C9018C549F4F68E671E00E9475
:101F1000B735821B930B8038910514F09A9505C054
:101F200081384FEF94070CF4939597FD03969595A0
:101F3000879595958795C82F8091E904281B3109CD
:101F400037FF02C02D5F3F4F359527953595279573
:101F5000D22FD090EA049CE1E92E91E0F92E00E026
:101F600010E0F701208122952F706091E704962FF1
:101F7000991F9927991F6091E804660F692B2C9F80
:101F8000600D11247091E9042D9F700D11248D2D89
:101F90000E94940E472F282FC8010E94490F0F5FFF
:101FA0001F4FF4E0EF0EF11C00331105D1F6DF9165
:101FB000CF911F910F91FF90EF90DF900895AF9216
:101FC000BF92CF92DF92EF92FF920F931F93CF9326
:101FD000DF931F92CDB7DEB7D82E2091E704221FE2
:101FE0002227221F8091E804982F990FB22EB92A38
:101FF00087FB882780F9EB2DF82FCF018C549F4F5A
:1020000068E671E00E94B7359C012E1B3F0B37FF3D
:1020100002C02D5F3F4F3595279535952795A22E08
:10202000C090E9040091CB031091CC032091CD0323
:102030003091CE039091EB04992359F0692F70E011
:102040008AE090E00E94B735CB01770FAA0BBB0B5B
:1020500004C08AE090E0A0E0B0E080239123A223B6
:10206000B323892B8A2B8B2B41F40E941D3660E30E
:1020700070E00E94B735082F01C00FEFE12CF12C62
:1020800010E0D11003C0E016F106A9F40E941D363D
:1020900083706B2D8A9D600D112469830E941D360B
:1020A00069817C2D8091EA040E94940E472F282F8D
:1020B000C7010E94490F8FEFE81AF80A80E3E8167B
:1020C000F104F9F60F90DF91CF911F910F91FF90DE
:1020D000EF90DF90CF90BF90AF900895CF92DF92B6
:1020E000EF92FF921F93CF93DF938091CB03909158
:1020F000CC03A091CD03B091CE030090EB0404C0BB
:10210000880F991FAA1FBB1F0A94D2F7182F8AE1C4
:10211000C82E81E0D82EC0E0D0E09FE3E92EF12C5C
:10212000F60180818F3FE1F0FE01E051FB4F80819D
:10213000F4E08F9FC00111248034910524F4B7018D
:10214000681B790B02C060E070E0610F7FEF809147
:10215000EA040E94940E472F282FCE010E94490FB7
:10216000219624E0C20ED11CC033D105C9F6DF91FF
:10217000CF911F91FF90EF90DF90CF900895CF9275
:10218000DF92EF92FF920F931F93CF93DF93809193
:10219000CB039091CC03A091CD03B091CE030090DE
:1021A000EB0404C0880F991FAA1FBB1F0A94D2F723
:1021B000D82EC090EA040AE111E0C0E0D0E08FE33D
:1021C000E82EF12CF80180818F3FF9F0FE01E051FB
:1021D000FB4F2081F4E02F9F900111242034310522
:1021E0002CF4C701821B930B9C0102C020E030E05D
:1021F000F80161816D0D620F7FEF8C2D0E94940EAE
:10220000472F282FCE010E94490F21960C5F1F4FA8
:10221000C033D105B9F6DF91CF911F910F91FF9097
:10222000EF90DF90CF900895CF92DF92EF92FF92E0
:102230000F931F93CF93DF938091CB039091CC03A7
:10224000A091CD03B091CE030090EB0404C0880FA1
:10225000991FAA1FBB1F0A94D2F7D82EC090EA0478
:102260000AE111E0C0E0D0E08FE3E82EF12CF801A4
:1022700080818F3FF9F0FE01E051FB4F2081F4E0B7
:102280002F9F90011124203431052CF4C701821BAB
:10229000930B9C0102C020E030E0F80162816D0DDB
:1022A000620F7FEF8C2D0E94940E472F282FCE01B6
:1022B0000E94490F21960C5F1F4FC033D105B9F61C
:1022C000DF91CF911F910F91FF90EF90DF90CF9012
:1022D00008952F923F924F925F926F927F928F92CA
:1022E0009F92AF92BF92CF92DF92EF92FF920F93A5
:1022F0001F93CF93DF933090E9042090EA0460911C
:10230000CB037091CC038091CD039091CE030E94BA
:1023100018342BED3FE049E450E40E94E53420E01E
:1023200030E040E05CE30E94E5346B017C010E94F8
:102330006B3320E030E040E05DE30E94E5342B01A8
:102340003C01C701B6010E94523520E030E040EE6A
:1023500052E40E9470334B015C01CCE1D1E000E01B
:1023600010E0688170E080E090E00E941A3420E084
:1023700030E040E052E40E94FE32A30192010E944C
:10238000E5346B017C01FE013197608170E080E0F3
:1023900090E00E941A3420E030E040EE52E40E94C7
:1023A000FE32A50194010E94E5349B01AC01C701F6
:1023B000B6010E94FF3220E030E044E353E40E9483
:1023C000E5346B017C018091E704881F8827881F12
:1023D0009091E804292F220F622F682B97FB772713
:1023E00070F9072E000C880B990B0E941A349B0180
:1023F000AC01C701B6010E94FF320E94E933732D80
:10240000822D0E94940E472F282FC8010E94490F49
:102410000F5F1F4F24960033110509F0A2CFDF9103
:10242000CF911F910F91FF90EF90DF90CF90BF90D1
:10243000AF909F908F907F906F905F904F903F9064
:102440002F9008952F923F924F925F926F927F92BA
:102450008F929F92AF92BF92CF92DF92EF92FF92B4
:102460000F931F93CF93DF93CDB7DEB728970FB6A7
:10247000F894DEBF0FBECDBF8091E9048D839091AB
:10248000EA049E836091CB037091CC038091CD03CD
:102490009091CE030E9418342BED3FE049E450E4C4
:1024A0000E94E53420E030E040E05CE30E94E53447
:1024B0006B017C010E946B332B013C01C701B6010B
:1024C0000E94523569837A838B839C83ECE1F1E02F
:1024D000F887EF8300E010E0EF81F88531972080E6
:1024E000EF81F885B0803090EB04332079F0632DD4
:1024F00070E080E090E00E941A3420E030E040EC90
:102500005FE30E94E5346B017C0106C0C12CD12C35
:1025100090ECE92E9FE3F92E6B2D70E080E090E0C7
:102520000E941A3420E030E040E052E40E94FE3283
:102530009B01AC01C701B6010E94E534A3019201E1
:102540000E94E5344B015C01332079F0632D70E08B
:1025500080E090E00E941A3420E030E040EC5FE33D
:102560000E94E5346B017C0106C0C12CD12C80ECAB
:10257000E82E8FE3F82E622D70E080E090E00E945C
:102580001A3420E030E040EE52E40E94FE329B011B
:10259000AC01C701B6010E94E53429813A814B8123
:1025A0005C810E94E5349B01AC01C501B4010E942D
:1025B000FF326B017C018091E704881F8827881F08
:1025C0009091E804292F220F622F682B97FB772721
:1025D00070F9072E000C880B990B0E941A349B018E
:1025E000AC01C701B6010E94FF320E94E9337D8130
:1025F0008E810E94940E472F282FC8010E94490FF8
:102600000F5F1F4F8F819885049698878F830033C3
:10261000110509F061CF28960FB6F894DEBF0FBE02
:10262000CDBFDF91CF911F910F91FF90EF90DF9081
:10263000CF90BF90AF909F908F907F906F905F9062
:102640004F903F902F9008952F923F924F925F921C
:102650006F927F928F929F92AF92BF92CF92DF92B2
:10266000EF92FF920F931F93CF93DF9300D000D090
:102670001F92CDB7DEB72091E9042A838091EA0446
:102680008B836091CB037091CC038091CD039091AB
:10269000CE030E9418342BED3FE049E450E40E9441
:1026A000E53420E030E040E05CE30E94E5346B017B
:1026B0007C010E946B332B013C01C701B6010E94D3
:1026C00052354B015C01ACE1B1E0BD83AC8300E06D
:1026D00010E0EC81FD813197B081B983EC81FD81FF
:1026E00030802090EB04222069F0622D70E0660FAC
:1026F000771F072E000C880B990B0E941A346B0170
:102700007C0105C0C12CD12CE12C20E4F22E632DDC
:1027100070E080E090E00E941A3420E030E040E079
:1027200052E40E94FE329B01AC01C701B6010E9437
:10273000E534A30192010E94E5346B017C01222063
:1027400021F0312C220C331C03C082E0282E312CC6
:10275000F9816F2F70E080E090E00E941A3420E051
:1027600030E040EE52E40E94FE320E94E2339B01D0
:1027700077FF04C022273327261B370B82E490E023
:10278000821B930B289EB001299E700D389E700D00
:102790001124072E000C880B990B0E941A34A501F6
:1027A00094010E94E5349B01AC01C701B6010E946F
:1027B000FF326B017C018091E704881F8827881F06
:1027C0009091E804292F220F622F682B97FB77271F
:1027D00070F9072E000C880B990B0E941A349B018C
:1027E000AC01C701B6010E94FF320E94E9337A8131
:1027F0008B810E94940E472F282FC8010E94490FF9
:102800000F5F1F4F8C819D8104969D838C830033C5
:10281000110509F05ECF0F900F900F900F900F9061
:10282000DF91CF911F910F91FF90EF90DF90CF90AC
:10283000BF90AF909F908F907F906F905F904F90E0
:102840003F902F9008952F923F924F925F926F92F8
:102850007F928F929F92AF92BF92CF92DF92EF9230
:10286000FF920F931F93CF93DF9300D01F92CDB7AA
:10287000DEB72090E9048091EA0489836091CB035C
:102880007091CC038091CD039091CE030E941834B7
:1028900020E030E040E85BE30E94E53420E030E0F7
:1028A00040E653E40E94E5342B013C01ECE1F1E009
:1028B000FB83EA8300E010E0EA81FB8131973080FE
:1028C000EA81FB81E080F090EB04FF2079F06F2D2E
:1028D00070E080E090E00E941A3420E030E040ECAC
:1028E0005FE30E94E5344B015C0106C0812C912C12
:1028F00090ECA92E9FE3B92E6E2D70E080E090E061
:102900000E941A3420E030E040E052E40E94FE329F
:102910000E94E2339B0177FF04C022273327261B46
:10292000370BB901330F880B990B0E941A349B01A6
:10293000AC01C501B4010E94E5342EE23DEB4BEB46
:1029400053EB0E94E5344B015C01FF2079F06F2DC1
:1029500070E080E090E00E941A3420E030E040EC2B
:102960005FE30E94E5346B017C0106C0C12CD12CD1
:1029700080ECE82E8FE3F82E632D70E080E090E08D
:102980000E941A34A30192010E94FE329B01AC0105
:10299000C701B6010E94E5349B01AC01C501B40139
:1029A0000E94FE326B017C018091E704881F88271A
:1029B000881F9091E804292F220F622F682B97FB24
:1029C000772770F9072E000C880B990B0E941A3498
:1029D0009B01AC01C701B6010E94FF320E94E9339E
:1029E000722D89810E94940E472F282FC8010E94C2
:1029F000490F0F5F1F4F8A819B8104969B838A83B7
:102A00000033110509F058CF0F900F900F90DF9110
:102A1000CF911F910F91FF90EF90DF90CF90BF90DB
:102A2000AF909F908F907F906F905F904F903F906E
:102A30002F900895CF92DF92FF920F931F93CF9321
:102A4000DF931F92CDB7DEB7F82E0091CB03109124
:102A5000CC032091CD033091CE039091EB049923C8
:102A600059F0692F70E08AE090E00E94B735AB0121
:102A7000770F660B770B04C04AE050E060E070E02F
:102A80004023512362237323452B462B472B39F4D4
:102A90000E941D3660E370E00E94B73501C08FEFE1
:102AA00000E010E0C82ED12CF11003C00C151D055C
:102AB00081F40E941D3689830E941D36782F69811A
:102AC0008091EA040E94940E472F282FC8010E948B
:102AD000490F0F5F1F4F0033110531F70F90DF9142
:102AE000CF911F910F91FF90DF90CF90089508959F
:102AF0000E9477150C9475074091E70440FD0AC0C9
:102B00000E94530F0E9478158091E7048170809392
:102B1000070108958091C503843120F48F5F80936D
:102B2000C50308958091CB039091CC03A091CD0370
:102B3000B091CE030196A11DB11D8093CB0390935C
:102B4000CC03A093CD03B093CE038091C7039091A3
:102B5000C803A091C903B091CA038F3F2FEF92071A
:102B6000A207B20759F00196A11DB11D8093C703BA
:102B70009093C803A093C903B093CA038091C6037E
:102B8000E0EFF4E090819F3F61F09E3F41F4282FF9
:102B900030E02230310514F0815001C080E09F5FA9
:102BA0009083319695E0E032F90761F78093C60390
:102BB000E42FE695EF7380910601E81307C081E0EA
:102BC00090910701913019F480E001C081E081709B
:102BD000E093060191E0909307014E2F50E0FA0137
:102BE0003197EB30F10520F5EA58FF4F0C94CB35C7
:102BF0000E94580F1DC00E9469111AC00E946D0FDB
:102C000017C00E94DF0F14C00E946E1011C00E94F6
:102C1000BF100EC00E9414110BC00E94221208C0E7
:102C20000E94241305C00E94231402C00E941A159A
:102C30000C947815E0914203F09143030995E0EF7D
:102C4000F4E08FEF819395E0E032F907D9F70E9425
:102C50009727811104C00E9405280E94340F0E940A
:102C60002A0F6093E7047093E8048093E90490933B
:102C7000EA046E7761F40E94340F0E942A0F609379
:102C8000E7047093E8048093E9049093EA040895BC
:102C9000E7EEF4E08081982F909590FB80F9808397
:102CA00060817181828193810C942E0F9091E70451
:102CB000892F86958F5F8F7391788C3018F4880FE9
:102CC000892B02C0892F82608093E7046091E7041A
:102CD0007091E8048091E9049091EA040C942E0F1D
:102CE0009091E704892F8695815C8F739178882372
:102CF00019F0880F892B02C0892F86618093E70421
:102D00006091E7047091E8048091E9049091EA04ED
:102D10000C942E0F8091E704982F991F9927991FE3
:102D20008091E804880F892B90E008968F3F9105E9
:102D300019F014F08FEF90E02091E70480FB27F961
:102D40002093E704282F26958091E8048078822B31
:102D500090FB87F98093E8046091E7047091E804A0
:102D60008091E9049091EA040C942E0F8091E7047D
:102D7000982F991F9927991F8091E804880F892B14
:102D800090E0089797FF02C080E090E08F3F9105A8
:102D900019F014F08FEF90E02091E70480FB27F901
:102DA0002093E704282F26958091E8048078822BD1
:102DB00090FB87F98093E8046091E7047091E80440
:102DC0008091E9049091EA040C942E0F8091E9041B
:102DD00090E008968F3F910519F014F08FEF90E086
:102DE0008093E9046091E7047091E8048091E9041C
:102DF0009091EA040C942E0F8091E90490E00897DA
:102E000097FF02C080E090E08F3F910519F014F029
:102E10008FEF90E08093E9046091E7047091E804FB
:102E20008091E9049091EA040C942E0F8091EA04B9
:102E300090E008968F3F910519F014F08FEF90E025
:102E40008093EA046091E7047091E8048091E904BA
:102E50009091EA040C942E0F8091EA0490E0089778
:102E600097FF02C080E090E08F3F910519F014F0C9
:102E70008FEF90E08093EA046091E7047091E8049A
:102E80008091E9049091EA040C942E0F8091EB0458
:102E900090E001968430910514F083E090E08093F7
:102EA000EB046091E7047091E8048091E90490914B
:102EB000EA040C942E0F8091EB0490E0019797FFA9
:102EC00002C080E090E08430910514F083E090E04F
:102ED0008093EB046091E7047091E8048091E90429
:102EE0009091EA040C942E0FE7EEF4E08F73982F84
:102EF000990F80818178892B8083608171818281A3
:102F000093810C942E0F8091E70486958F7308951A
:102F1000E7EEF4E0208180FB27F92083A8EEB4E0FF
:102F200086952C912078822B90FB87F98C93628375
:102F3000438360817181828193810C942E0F67E7B6
:102F400084E70C947419CF930E94B31984E70E940C
:102F5000F91787E70E94F917C0E021E041E061E03E
:102F60008C2F0E948B18CF5FC033B9F767E784E7D7
:102F7000CF910C948719E0E4F6E06083418324E666
:102F800030E042E050E0BF01880F0C94891AEF92C4
:102F9000FF921F93CF93DF937B01182F110FC0E097
:102FA000D0E08C2F8C5D8093400620E030E0F9016A
:102FB000EC0FFD1FEE0DFF1D8081F901E05CF94F64
:102FC00081832F5F3F4F2031310589F724E630E0C0
:102FD00041E150E060E476E0812F0E94891A60961A
:102FE000C039D105F1F6DF91CF911F91FF90EF909D
:102FF0000895CF93DF93C82F4BE06DEF0E94BB176E
:1030000040E06AE08C2F0E94BB178FE39CE9019798
:10301000F1F700C0000040E060E08C2F0E94BB1779
:1030200040E061E08C2F0E94BB1740E066E08C2FEF
:103030000E94BB1740E06DEF8C2F0E94BB17D0E0C1
:1030400040E06D2F8C2F0E94BB17DF5FD231C1F79C
:1030500040E06D2F8C2F0E94BB17DF5FD432C1F789
:1030600040E06D2F8C2F0E94BB17DF5FD43BC1F770
:103070004BE06DEF8C2F0E94BB1741E06AE08C2F74
:103080000E94BB1740E06DEF8C2FDF91CF910C9425
:10309000BB178033910520F5880F991F880F991F62
:1030A000FC01E652FE4F5281338180818370718131
:1030B000E0E98E9FC0011124805E9A4FFC01E70F6A
:1030C000F11DB4976083FC01E50FF11DB4974083B7
:1030D000830F911DFC01B497208381E08093F4035A
:1030E0000895FF920F931F93CF93DF93182F062F0E
:1030F000F42EC0E0D0E02F2D402F612FCE010E9492
:1031000049182196C033D105B1F7DF91CF911F91B6
:103110000F91FF9008954F925F927F928F929F92AE
:10312000AF92BF92CF92DF92EF92FF920F931F93D5
:10313000CF93DF93362F54E0859FC0011124FC010B
:10314000E652FE4FA081A3707A2E618170E0CB0120
:1031500084978C0197FF02C0095F1F4FA3E015956C
:103160000795AA95E1F7628170E07B0154E2E51AC8
:10317000F108E701F7FC279673E0D595C7957A9596
:10318000E1F7638170E04B01E4E28E1A9108F401EB
:1031900097FC37962F0153E0559447945A95E1F7E1
:1031A00068E0A62EB12CB5010E94B7356C01C701AD
:1031B000B5010E94B7357C01C401B5010E94B73545
:1031C000A72DB0E01127DD243323A1F032E13A9F8F
:1031D000B0013B9F700D1124060F171F00531C4FA9
:1031E00061E070E001C0660FCA94EAF7F80130812F
:1031F000632B14C032E13A9FB0013B9F700D112444
:10320000060F171F00531C4F61E070E001C0660FEE
:10321000CA94EAF76095F801308163236083DD2763
:10322000FF2432E1442391F03A9FA0013B9F500DCF
:103230001124C40FD51FC053DC4F41E050E001C042
:10324000440FEA94EAF73881432B12C03A9FA00159
:103250003B9F500D1124C40FD51FC053DC4F41E0DC
:1032600050E001C0440FEA94EAF7409538814323C7
:103270004883A2015527992792E19A9FF0019B9FCD
:10328000F00D1124E40FF51FE053FC4F222361F0F1
:1032900021E030E0A90102C0440F551F8A95E2F7F2
:1032A000CA019081892B0CC021E030E0A90102C045
:1032B000440F551F8A95E2F7CA01809590818923B2
:1032C000808381E08093CF03DF91CF911F910F9195
:1032D000FF90EF90DF90CF90BF90AF909F908F9036
:1032E0007F905F904F900895CF939091F40399232E
:1032F00051F0C62F60E275E00E94C71760EB75E0E1
:103300008C2F0E94C7171092F403CF910895EF926B
:10331000FF920F931F93CF93DF939091CF03992345
:10332000D9F0162F082F80EDE82E83E0F82EC0E0AC
:10333000D0E0F70141917F016C2F802F0E94BB17D5
:10334000FE01E053FC4F42896C2F812F0E94BB1776
:103350002196C231D10569F7DF91CF911F910F916D
:10336000FF90EF9008951092B9008CE08093B80020
:103370000895EF92FF920F931F93CF93DF93182F2F
:10338000EB011092BC0084EA8093BC000E941929D2
:103390007C019091BC0097FD0EC0CF3F8FEFD80706
:1033A000C1F30E9419298E199F098C179D0788F374
:1033B0008EEF9FEF2EC09091B900987F983041F02A
:1033C0009091B900987F903119F08FEF9FEF21C055
:1033D0001093BB0084E88093BC000E9419298C01E3
:1033E0009091BC0097FD0CC0CF3F8FEFD807C1F381
:1033F0000E941929801B910B8C179D0788F3D8CF49
:103400008091B900887F883111F08034F1F680E036
:1034100090E0DF91CF911F910F91FF90EF90089571
:103420000F931F93CF93DF93EB018093BB0084E84E
:103430008093BC000E9419298C019091BC0097FDDB
:103440000EC0CF3F8FEFD807C1F30E941929801B10
:10345000910B8C179D0788F38EEF9FEF0CC0209186
:10346000B900287F81E090E0283211F480E090E0FC
:10347000919581959109DF91CF911F910F910895B9
:103480000F931F93CF93DF93EC0184E88093BC00EC
:103490000E9419298C019091BC0097FD0EC0CF3F6E
:1034A0008FEFD807C1F30E941929801B910B8C174D
:1034B0009D0788F38EEF9FEF03C08091BB0090E0E3
:1034C000DF91CF911F910F9108950F931F93CF9389
:1034D000DF93EC0184E98093BC000E9419298C01E0
:1034E0009091BC0094FF0EC0CF3F8FEFD807C1F37F
:1034F0000E941929801B910B8C179D0788F38EEF72
:103500009FEF02C080E090E0DF91CF911F910F917B
:103510000895CF92DF92EF92FF920F931F93CF9374
:10352000DF936B017A018901B9010E94B919FC018D
:10353000892BC9F4E601EC0CFD1CCE15DF0541F02A
:10354000B80189910E94101AFC01892BB1F30BC0BC
:10355000C801DF91CF911F910F91FF90EF90DF9005
:10356000CF900C94651ACF01DF91CF911F910F91ED
:10357000FF90EF90DF90CF9008959093FA0380939F
:10358000F9030895E091F903F091FA03309721F0DF
:103590000190F081E02D099480E00895E091F90315
:1035A000F091FA03309799F020911901222359F0F4
:1035B00020915A0627FF07C0DC012C9111962C930D
:1035C000119725E02C930280F381E02D0994089552
:1035D000E091F903F091FA03309739F022E0DC0131
:1035E0002C930480F581E02D099408952091F70330
:1035F0003091F8038217930771F09093F80380934A
:10360000F703E091F903F091FA03309721F0068077
:10361000F781E02D099408952091F5033091F60388
:103620008217930771F09093F6038093F503E0916E
:10363000F903F091FA03309721F00084F185E02D31
:103640000994089585B7806885BF85B7806885BF70
:10365000089508950E94221B0C94291B81E008956F
:103660000E9410290E9412050C94A729CF92DF9284
:10367000EF92FF920F931F93CF93DF93CDB7DEB7F7
:103680002B970FB6F894DEBF0FBECDBF0E94E405A6
:103690000E942E1B811111C08FEF89838A831B82A8
:1036A0000E9419298160782F9D838C8349815A81DA
:1036B0006B818D810E941A1C56C08CEFC82E83E04E
:1036C000D82E00E010E0E02E802F0E942C06F6019C
:1036D00041916F01F42EF82631F40F5F1F4F0E3029
:1036E000110589F7D9CF9091B70491FF04C08B875A
:1036F0000E9432068B8520E030E04F2D50E0922F63
:10370000BA01022E02C0759567950A94E2F760FF30
:1037100024C02E83EF8221E030E0690102C0CC0C8E
:10372000DD1C9A95E2F790E08C219D21892B09F40C
:1037300020E028870E9419298160782F9A8789873D
:103740004E815F8168858A850E941A1CF801E450C9
:10375000FC4F8081C826C08206C02F5F3F4F2630B5
:10376000310569F6BACF0E943A2B1091FB030E94F3
:10377000C21A1817A1F00E94C21A8093FB032B965D
:103780000FB6F894DEBF0FBECDBFDF91CF911F9172
:103790000F91FF90EF90DF90CF900C94A9082B969B
:1037A0000FB6F894DEBF0FBECDBFDF91CF911F9152
:1037B0000F91FF90EF90DF90CF900895DC0111966C
:1037C0002C9111978C91682F70E041E050E001C07E
:1037D000440F8A95EAF712968C91129730E088236D
:1037E00029F080911A048823E9F006C0F901E65F08
:1037F000FB4F90819423B1F086E0829FF001839F7C
:10380000F00D1124E60FF71FEE0FFF1FE656FD4FD8
:10381000808191818D939C93F901E65FFB4F8081BC
:10382000482B06C0F901E65FFB4F40958081482395
:1038300040830895CF93DF93CDB7DEB72B970FB6B4
:10384000F894DEBF0FBECDBF942F4F83252F58872E
:1038500069877A878B874A855B85452B21F02F3FC7
:1038600009F59F3FF9F4DE01119686E0FD01119202
:103870008A95E9F785E0FE01379601900D928A95C9
:10388000E1F749815A816B817C818D819E810E9403
:10389000AB232B960FB6F894DEBF0FBECDBFDF91E2
:1038A000CF910895CE0107960E94DE1BDCCFFC016C
:1038B000808191810E94762692959F70963041F486
:1038C00080911A0491E0892780931A049093190437
:1038D0000895882309F41AC18238C1F40E94C21ADB
:1038E00081FD14C169E380910801909109010E9452
:1038F0006C280E94D5262FEF81EE94E02150804065
:103900009040E1F700C0000069E319C08338F9F482
:103910000E94C21A80FDFAC063E58091080190916F
:1039200009010E946C280E94D5262FEF81EE94E0B9
:10393000215080409040E1F700C0000063E5809195
:103940000801909109010E9477280C94D5268438AB
:10395000C1F40E94C21A82FDD9C067E480910801B7
:10396000909109010E946C280E94D5262FEF81EECC
:1039700094E0215080409040E1F700C0000067E4EF
:10398000DECF9CEF980F913A40F4682F80910801A8
:10399000909109010E946C28D8CF90E2980F98303E
:1039A00050F4877091E001C0990F8A95EAF7892F4A
:1039B0000E940B27CACF9BE5980F933070F4853A8D
:1039C00029F0863A31F083E890E005C081E890E084
:1039D00002C082E890E00C94F61A98E5980F9731AF
:1039E00008F08EC0883A09F445C0893A09F445C008
:1039F0008A3A09F445C08B3A09F445C08C3A09F477
:103A000045C08B3B09F445C08C3B09F445C08D3A59
:103A100009F445C0803B09F445C08E3A09F445C01D
:103A20008F3A09F445C0813B09F445C0823B09F453
:103A300045C0833B09F445C0843B09F445C0853B40
:103A400009F445C0863B09F445C0873B09F445C0ED
:103A5000883B09F445C0893B09F445C08D3B09F416
:103A600045C08E3B09F445C08A3B09F445C080E05F
:103A700090E044C082EE90E041C089EE90E03EC00C
:103A80008AEE90E03BC085EB90E038C086EB90E09A
:103A900035C083EB90E032C084EB90E02FC087EB21
:103AA00090E02CC08CEC90E029C08DEC90E026C01A
:103AB00083E891E023C08AE891E020C082E991E0A8
:103AC0001DC084E991E01AC081E292E017C083E250
:103AD00092E014C084E292E011C085E292E00EC050
:103AE00086E292E00BC087E292E008C08FE690E0A9
:103AF00005C080E790E002C08AE292E00C940C1BC3
:103B0000803F20F00E94422A0C942F2B0895882396
:103B100009F464C0823879F40E94C21A81FF5EC041
:103B200069E380910801909109010E946C280E942C
:103B3000D52669E310C08338B1F40E94C21A80FF11
:103B40004DC063E580910801909109010E946C28A5
:103B50000E94D52663E580910801909109010E9499
:103B600077280C94D526843879F40E94C21A82FFF3
:103B700035C067E480910801909109010E946C288A
:103B80000E94D52667E4E7CF9CEF980F913A10F496
:103B9000682FE1CF90E2980F983050F4877091E051
:103BA00001C0990F8A95EAF7892F0E941127D9CF72
:103BB0009BE5980F933020F480E090E00C94F61A87
:103BC00098E5980F973120F480E090E00C940C1B5E
:103BD000803F20F00E94AA2A0C942F2B0895CF93A7
:103BE000C82F0E94691C8C2FCF910C94871D8823AD
:103BF00021F00E940B270C94D5260895882321F0EC
:103C00000E9411270C94D52608958F929F92AF920F
:103C1000BF92DF92EF92FF920F931F93CF93DF93A8
:103C20007C01D62FC72FFC01058102950F701281F0
:103C300011110E942B270E94CE26882379F0112390
:103C400069F080E28D0F883048F082E00E94B7264C
:103C50000E94CE2691E0D82ED92601C0D12CAC2EC0
:103C6000A2948FE0A822B12CF501EF57FF4F0C94DE
:103C7000CB358C2F807FCF70882311F0C295C07F09
:103C8000112399F0CC2309F4C8C180E28D0F88304C
:103C900010F0D11104C08C2F0E940B2703C08C2F71
:103CA0000E941E270E94D526B8C18D2F0E94871D15
:103CB000CC2309F42EC280E28D0F883010F0D11190
:103CC00004C08C2F0E94112703C08C2F0E94242730
:103CD0000E94D5261EC28C2F807FCF70803211F0BB
:103CE000C295C07FDD2319F0D130C9F021C0112366
:103CF00071F0002341F0013031F40E9444278C2BF5
:103D00000E943E2706C20E9444278C2B3FC10023FD
:103D100019F0013009F4FDC10E94412711C011239F
:103D200021F0023008F0F5C107C00111F2C108C04E
:103D3000112321F0011171C18C2F28C101117EC105
:103D40008C2F2AC18C2F86958695837090E00097E2
:103D500019F0019761F0DDC1112321F08D2F9C2F07
:103D6000937002C080E090E00E94F61AE2C1112335
:103D700021F08D2F9C2F937002C080E090E00E9474
:103D80000C1BD7C11123F9F0D53F51F0D63F71F08C
:103D9000D43FA9F4809154069091550681600BC0E0
:103DA0008091540690915506826005C0809154061A
:103DB00090915506846090935506809354068D2FFC
:103DC0000E94422A1EC0D53F51F0D63F71F0D43F29
:103DD000A9F480915406909155068E7F0BC0809176
:103DE0005406909155068D7F05C0809154069091A0
:103DF00055068B7F90935506809354068D2F0E9415
:103E0000AA2A0E942F2B95C18C2F837009F050C0D5
:103E100011118BC18D2F829586958770880F880F21
:103E20009D2F9F70892E912CA12CB12C082E04C09F
:103E3000880C991CAA1CBB1C0A94D2F7D4FF14C08E
:103E40000FE010E020E030E0B901A80104C0440F09
:103E5000551F661F771F8A95D2F7CB01BA0160956F
:103E600070958095909503C060E070E0CB01C69599
:103E7000C695C370D0E0C230D10561F0C330D10522
:103E800081F0682979298A299B29219771F00E945C
:103E9000F0244BC1682979298A299B290E9402258F
:103EA00044C10E94F024C501B4010E94DE243DC13A
:103EB000112319F08C2F817001C08695882309F495
:103EC00034C18D2F829586958770880F880F9D2F1E
:103ED0009F70892E912CA12CB12C082E04C0880C27
:103EE000991CAA1CBB1C0A94D2F7D4FF14C00FE083
:103EF00010E020E030E0B901A80104C0440F551FD4
:103F0000661F771F8A95D2F7CB01BA01609570952D
:103F10008095909503C060E070E0CB01C695C69592
:103F2000C3704C2F50E04230510569F043305105C9
:103F300089F0682979298A299B294130510571F036
:103F40000E94B525F2C0682979298A299B290E94F7
:103F5000C725EBC00E94B525C501B4010E94A32569
:103F6000E4C08D2F90E0FC01E05EF109E531F10540
:103F700008F04FC0EF56FF4F0C94CB35DF708C2FFD
:103F80008F71112331F00E943C258D2F0E94F71D67
:103F9000C0C00E945D258D2F0E94FE1DBAC0112356
:103FA00039F00111B6C08C2F8F710E948225B1C0EB
:103FB000023008F0AEC0F7CF112339F08C2F8F718B
:103FC0000E943C25A6C01123C9F38C2F8F710E943B
:103FD0005D259FC0112329F08C2F8F710E9427250A
:103FE00098C00E94222595C0112349F0CF718C2FD3
:103FF0000E943C2563E08C2F0E94AE268AC081E09F
:104000000E94B726023008F484C082E00E94B726DE
:1040100080C0112331F0002389F28D2F0E94691C8A
:1040200078C0002391F2D93349F45FEF67EE73E073
:10403000515060407040E1F700C000008D2F0E9499
:10404000871D67C04C2F4F706D2FC7010E949007CE
:104050000E944F246EC0D23FB1F028F4D03F49F007
:10406000D13FF9F028C0D43FB9F058F0D53F71F0F6
:1040700022C0112309F447C090911A0481E08927D6
:1040800008C081E0182710931A043DC011113BC0ED
:1040900081E080931A0437C0111135C010921A04C0
:1040A00032C0112329F080911904882329F329C0F3
:1040B000002311F328C0809119040023C1F0882344
:1040C00041F090911A0481E0892780931A0410929C
:1040D00019048D2F112319F00E94691C14C00E942D
:1040E000871D86E0F70111928A95E9F70CC08823B5
:1040F00051F0111108C090911A0481E08927809332
:104100001A04109219044C2F4F706D2FC7010E9492
:10411000550BF8E0AF16B10441F05CF04AE0A41A88
:10412000B10852E0A516B10420F40E94C21A0E9400
:10413000A908DD20E1F00E94AA2680FD18C0F70141
:1041400012820E94A4260E943C25C7010E94C3201F
:104150000E94A426DF91CF911F910F91FF90EF90C5
:10416000DF90BF90AF909F908F900C945D25DF9172
:10417000CF911F910F91FF90EF90DF90BF90AF9084
:104180009F908F9008950F931F93CF93DF93EC012F
:10419000888199812B813C81232BB9F09F3F11F4B9
:1041A0008F3F99F0CE010E94BB08882371F068818F
:1041B00079818A810E9481268C010E94D9250E94E2
:1041C000DB24B801CE010E94051EDF91CF911F9123
:1041D0000F9108950E942B270E943B270E94D5260D
:1041E0000E94D52B0E942F2B80E090E00E94F61AAF
:1041F00080E090E00C940C1B8091080190910901E3
:104200000E9482280C94EA200E941B270C94FC2018
:104210000E947626E92FE295EF70F0E03297EE30BB
:10422000F105B0F4EA55FF4F0C94CB35803F91F087
:1042300018F4803E68F40EC0843F51F40BC0803EF9
:1042400048F0813F29F406C093FB882780F9089540
:1042500080E0089581E00895CF93DF9300D000D0EF
:104260001F92CDB7DEB70F900F900F900F900F9069
:10427000DF91CF910895CF93DF9300D000D000D08D
:10428000CDB7DEB726960FB6F894DEBF0FBECDBF12
:10429000DF91CF9108951F93CF93DF93C0911B04BB
:1042A00016E080911C04C81799F0D0E01C9FF00123
:1042B0001D9FF00D1124E35EFB4F4081518162810F
:1042C0007381848195810E943B212196C770E9CF3B
:1042D000DF91CF911F91089540914D0450914E046C
:1042E00060914F0470915004809151049091520458
:1042F0000C943B218091520482958F7009F054C038
:1043000080914F04882309F44FC080911B04A09131
:104310001C0460914D0470914E04409150045091E2
:104320005104B6E08A1709F43FC090E041155105E9
:10433000C1F17F3F11F46F3FA1F1B89FF001B99F28
:10434000F00D1124E35EFB4F218172132AC02081FE
:10435000621327C02281211124C0238134812417B4
:10436000350710F421503109241B350B283C310549
:10437000C0F4209152042F7020612093520426E053
:10438000289FF001299FF00D1124EE5DFB4F8081E5
:104390008F70806180838DE494E00E94C3200C9430
:1043A0004B2101968770BECF0895CF92DF92EF9296
:1043B000FF920F931F93CF93DF93CDB7DEB7629732
:1043C0000FB6F894DEBF0FBECDBF8C0185E0F801BB
:1043D000DE011D9601900D928A95E1F7D8014C916E
:1043E00011965C91119712966C9112971396CD903D
:1043F000DC90149730914D0470914E0480915004DC
:1044000090915104009709F46BC17F3F19F43F3F2D
:1044100009F466C1E0904F04EE2009F4C0C0209179
:104420005204C816D90628F0F601E81BF90BCF0193
:1044300004C0809590958C0D9D1DFF24F394883CBD
:10444000910578F0F12C207F09F0C6C07C2DD98A27
:10445000C88A89890E942C218DE494E00E94C3209F
:10446000B1C0822F807F09F046C0751314C0341389
:1044700012C0611110C02F702061209352040E945D
:104480006C218DE494E00E94C32080915204D801F5
:1044900015968C932EC0CD2819F15F3F11F44F3F34
:1044A000F9F0F62E61111CC080911B0420911C04B0
:1044B00036E0821709F45AC090E0389FF001399F26
:1044C000F00D1124E35EFB4F7181571306C070811C
:1044D000471303C07281711103C001968770E9CF41
:1044E000F62E662309F427C18091520481608093DF
:1044F0005204F12C20C1751308C0341306C0611199
:1045000004C080915204D801C3C04D875E878D8559
:104510009E856A8B0E9408216A898823E1F16623BF
:10452000D1F120915204822F82958F7090E00297F2
:1045300074F080914D0490914E0498878F83198672
:10454000DB86CA862C87CE0107960E94C32086E0B0
:10455000F801ADE4B4E001900D928A95E1F70E9474
:104560007A210E946C21FF24F394E5C04D875E8779
:104570008D859E850E947626292F22952F7030E00A
:10458000223031050CF0CBC09F7009F0C5C0805EB1
:10459000883008F4D0C0C8010E94C320E4CFC816F8
:1045A000D90608F453C0F601E81BF90BCF01883C8B
:1045B000910508F450C0F12C7C2DD98AC88A8989CC
:1045C0000E942C21EDE4F4E086E0DF011D928A9543
:1045D000E9F70E946C21AFC0751314C0341312C0E8
:1045E000611110C080915204F8018583C8010E94B6
:1045F000C32086E0EDE4F4E0DF011D928A95E9F73F
:10460000FE2C99C04D875E878D859E856A8B0E94A2
:1046100008216A89882309F4BECF662309F4BBCF39
:1046200020915204822F82958F7090E002970CF4B3
:104630008ECF80914D0490914E049A8389831B8282
:10464000DD82CC822E83CE0101967FCF809590951E
:104650008C0D9D1DACCFF62E662309F49CCF7513EF
:104660002EC034132CC02091520420FD1FC0822F75
:1046700082958F70D9F0D80115962C9315978F30AD
:1046800049F08F5F982F9295907F822F8F70892BA2
:1046900015968C93C8010E94C32086E0F801ADE412
:1046A000B4E001900D928A95E1F793CF86E0F8018E
:1046B000ADE4B4E001900D928A95E1F73CC04D87DE
:1046C0005E878D859E850E940821811140CF809153
:1046D0005204816080935204C8010E94C3202BC001
:1046E000662309F458CF4D875E878D859E850E948D
:1046F0000821F82E882309F44ECF86E0F801ADE4B6
:10470000B4E001900D928A95E1F78DE494E00E9467
:10471000571C0E947A215DCF811139CF0CC0243003
:1047200031050CF038CF9F7009F431CFF801958135
:10473000907F09F02CCF8F2D62960FB6F894DEBFD4
:104740000FBECDBFDF91CF911F910F91FF90EF90E2
:10475000DF90CF9008951F93CF93DF93CDB7DEB74F
:104760002C970FB6F894DEBF0FBECDBF4F8358878E
:1047700069877A878B879C87CE0107960E94D5210F
:10478000882369F08F8198852A853B85232BF1F159
:104790009F3F09F063C08F3F09F060C037C086E0DB
:1047A000FE013796DE01119601900D928A95E1F790
:1047B0006F817885EA85FB85309741F17F3F11F461
:1047C0006F3F21F120911C0430E0C90101968770F0
:1047D000992740911B0450E08417950709F447C0BE
:1047E00069837A83FD83EC8396E0929FD001939F47
:1047F000B00D1124A35EBB4FFE01319601900D92C6
:104800009A95E1F780931C040E944B2116E0809159
:104810001B0490911C048917C1F1189FC001112439
:10482000835E9B4F0E94D521882379F1E0911B0480
:104830001E9FF0011124E35EFB4F40815181628194
:104840007381848195810E943B2180911B0490E0BB
:1048500001968770992780931B04D9CF4F81588583
:1048600069857A858B859C850E943B21CFCF0E94EC
:10487000042110921C0410921B04EDE4F4E086E085
:10488000DF011D928A95E9F7C1CF2C960FB6F894F7
:10489000DEBF0FBECDBFDF91CF911F910895EF9284
:1048A000FF920F931F93CF93DF938C01892B09F411
:1048B0006CC0F12CEE24E394E8012196F801849178
:1048C000843740F4843008F051C0813081F0823068
:1048D00019F15BC0853709F444C0A8F19CE7980F33
:1048E000903708F052C08F770E94871D41C00E5F3D
:1048F0001F4FFE01C49180E28C0F883048F4C770CE
:104900008E2D01C0880FCA95EAF70E942E2714C089
:104910008C2F0E94691C2DC00E5F1F4FFE01C49199
:1049200080E28C0F883058F4C7708E2D01C0880F3C
:10493000CA95EAF70E9434270E94D5261AC08C2F08
:104940000E94871D16C00E5F1F4FFE01C491CC232D
:1049500081F08FE99FE00197F1F700C00000C1509E
:10496000F6CF0E5F1F4FFE01F49003C00E94691C3A
:104970008E018F2D882309F49FCFEFE9FFE0319757
:10498000F1F700C000008150F5CFDF91CF911F916A
:104990000F91FF90EF90089508950C94CC240E94FD
:1049A000CD2460938E0470938F0480939004909331
:1049B00091040C94EA2008950C94CF240F931F9334
:1049C00000918E0410918F042091900430919104F5
:1049D000602B712B822B932B1F910F910C94CF2462
:1049E0000F931F9300918E0410918F0420919004D7
:1049F0003091910460237123822393231F910F919F
:104A00000C94CF240F931F9300918E0410918F0468
:104A10002091900430919104602771278227932779
:104A20001F910F910C94CF240C94E6070E9414253B
:104A300060938A0470938B0480938C0490938D040C
:104A40000C94EA2060E070E0CB010C9416250F93E3
:104A50001F9341E050E060E070E08A019B0104C0D8
:104A6000000F111F221F331F8A95D2F7C901B80109
:104A70001F910F910C9416250F931F9341E050E066
:104A800060E070E004C0440F551F661F771F8A95D1
:104A9000D2F780918A0490918B04A0918C04B091FC
:104AA0008D048A019B01082B192B2A2B3B2BC90152
:104AB000B8011F910F910C9416250F931F9341E09D
:104AC00050E060E070E004C0440F551F661F771F80
:104AD0008A95D2F7409550956095709580918A049B
:104AE00090918B04A0918C04B0918D048A019B015C
:104AF000082319232A233B23C901B8011F910F91D1
:104B00000C9416250F931F9341E050E060E070E095
:104B100004C0440F551F661F771F8A95D2F78091F6
:104B20008A0490918B04A0918C04B0918D048A0129
:104B30009B01082719272A273B27C901B8011F9184
:104B40000F910C9416250F931F9300918A041091D6
:104B50008B0420918C0430918D04602B712B822B5F
:104B6000932B1F910F910C9416250F931F93009177
:104B70008A0410918B0420918C0430918D04602361
:104B80007123822393231F910F910C9416250F9369
:104B90001F9300918A0410918B0420918C04309112
:104BA0008D0460277127822793271F910F910C9402
:104BB00016250895292F220F920F990F890FA82FDC
:104BC000A695A695A695877051E001C0550F8A95C8
:104BD000EAF785E0A89FD001112420E030E070E0E2
:104BE000F901EA0FFB1FED5AFB4F4081CB01022E6A
:104BF00002C0969587950A94E2F78170992781956E
:104C000084278523842780832F5F3F4F25303105FC
:104C100039F70895292F220F920F990F890F682FC6
:104C2000669566956695982F977085E0689FB001A8
:104C3000112440E050E080E0FA01E60FF71FED5A42
:104C4000FB4F208130E0092E02C0369527950A944B
:104C5000E2F721703327042E01C0220F0A94EAF7ED
:104C6000822B4F5F5F4F4530510531F70895CF924A
:104C7000DF92EF92FF920F931F93CF93DF938C01FC
:104C8000C0908E04D0908F04E0909004F090910436
:104C900080918A0490918B04A0918C04B0918D0432
:104CA000C82AD92AEA2AFB2ACFE1D0E0D701C601D7
:104CB0000C2E04C0B695A795979587950A94D2F7C0
:104CC00080FF06C0B8018C2F0E94700B019721F461
:104CD000219760F780E001C08C2FDF91CF911F9169
:104CE0000F91FF90EF90DF90CF900895CF93DF93D7
:104CF000EC010E943726BE010E94700BDF91CF911C
:104D000008951F93CF93DF93EB019091180499239B
:104D100021F0CB010E94762613C0882349F0CB01F5
:104D20000E943726182F682FCE010E94DA2504C072
:104D3000CB010E940A26182FBE01812F0E94700B02
:104D4000DF91CF911F91089580919204859585956B
:104D500085950895809192048770089598E0899FC1
:104D600090011124262B209392040C943C25209131
:104D700092048095822380939204982F977069F40F
:104D800030E0482F082E000C550B2417350729F06A
:104D90008595859585950C945D250895909192044F
:104DA000977081E009F480E00895E0910801F091A6
:104DB00009018091B6048083E0910801F091090116
:104DC00090818091B504892B8083E0910801F09156
:104DD000090190818091B404892B80838091930490
:104DE000882381F0E0910801F09109019081892BDD
:104DF000808380910801909109010E940728811108
:104E00001092930480910801909109010C94CE1A9C
:104E10008091B60408959091B604892B8093B604CE
:104E2000089580959091B60489238093B6040895DF
:104E30008093B60408951092B60408959091B50435
:104E4000892B8093B504089580959091B5048923AA
:104E50008093B50408951092B50408959091B40418
:104E6000892B8093B404089580959091B40489238C
:104E70008093B40408951092B40408958093930429
:104E80000895109293040895809193040895CF9209
:104E9000DF92EF92FF926C01EE24FF24C114D10443
:104EA000E104F10421F0C701B60120E101C020E0D6
:104EB000C72ED82EE92EFF24C114D104E104F10439
:104EC00019F0285FC701B6016B017C0154E0F6942C
:104ED000E794D794C7945A95D1F7C114D104E1044B
:104EE000F10419F02C5FC701B6016B017C0142E0AF
:104EF000F694E794D794C7944A95D1F7C114D10496
:104F0000E104F10419F02E5FC701B601DC01CB0109
:104F1000B695A79597958795892B8A2B8B2B09F0AA
:104F20002F5F822FFF90EF90DF90CF90089580E069
:104F300090E00E943B3621E08D3E9E4F09F020E03C
:104F4000822F089582E090E00C942D3683E090E06B
:104F50000C942D3684E090E00C942D36682F84E07C
:104F600090E00C944136AB01BC018FE090E00C94D2
:104F70005336AB01BC0183E190E00C94533660E002
:104F800070E0CB010C94B92760E070E0CB010E9487
:104F9000B3270C94BF276DEE7EEF80E090E00E9477
:104FA0005F3660E082E090E00E94413660E083E09E
:104FB00090E00E94413610928E0410928F0410925D
:104FC00090041092910460E084E090E00E944136E9
:104FD00060E085E090E00E94413660E086E090E08D
:104FE0000E9441366FEF87E090E00E94413640E03A
:104FF00050E0BA0188E090E00E94533660E08DE016
:1050000090E00E9441360C94C4270C94CB27FC01FD
:10501000329680911901882331F080915A0687FFDA
:1050200002C09EE101C096E080E0915028F02191FD
:105030002223D9F38F5FF9CF08959C01FC013296AA
:105040009FEF80E04191461789F09F3F19F441118D
:1050500001C0982F8F5F8630A9F79F3F39F0F90183
:10506000E90FF11D97FDFA95628308950895FC01FB
:10507000329608962081261301C010823196E817D7
:10508000F907C1F70895262F2695269526952E31E6
:1050900068F4FC01E20FF11D677021E030E001C00F
:1050A000220F6A95EAF78281282B22830895262F02
:1050B0002695269526952E3170F4FC01E20FF11D00
:1050C000677021E030E001C0220F6A95EAF7209571
:1050D000828128232283089520911901222329F017
:1050E00020915A0627FD0C9443280C941D282091EA
:1050F0001901222329F020915A0627FD0C945728E4
:105100000C94372820911901FC013296222331F0AA
:1051100080915A0687FF02C08EE101C086E0DF0160
:105120001D928A95E9F7089508950C9494280E9499
:10513000952880916006843049F11092B80420E4EB
:1051400088E190E00FB6F894A895809360000FBEB8
:105150002093600080E00E94A9080E94952883B7F0
:10516000817F846083BF83B7816083BF7894889593
:1051700083B78E7F83BF0FB6F894A89580916000A7
:10518000886180936000109260000FBE08950895BA
:10519000CF930E943B050E94E4050E94C728C0E00F
:1051A0008C2F0E942C06811104C0CF5FCE30C1F736
:1051B00001C081E0CF91089508950C94DC280E94ED
:1051C00004210E94C21A0E94A9080C94DD281F9293
:1051D0000F920FB60F9211248F939F93AF93BF93AB
:1051E0008091B804811113C08091560690915706A2
:1051F000A0915806B09159064196A11DB11D80930A
:10520000560690935706A0935806B0935906BF913F
:10521000AF919F918F910F900FBE0F901F90189597
:1052200082E084BD93E095BD9AEF97BD80936E00B8
:1052300008952FB7F8948091560690915706A09143
:105240005806B09159062FBF0895CF92DF92EF9282
:10525000FF920F931F932FB7F894409156065091E9
:10526000570660915806709159062FBF6A017B015D
:10527000EE24FF248C0120E030E0C016D106E206C7
:10528000F30610F4415051099A01281B390BC9014A
:105290001F910F91FF90EF90DF90CF900895789439
:1052A0001F920F920FB60F9211248F939F93AF937B
:1052B000BF938091560690915706A0915806B091E1
:1052C00059060196A11DB11D80935606909357066D
:1052D000A0935806B0935906BF91AF919F918F91BB
:1052E0000F900FBE0F901F901895F89481E0809357
:1052F000E00080E28093D800E9ECF0E010828FE1DA
:105300009EE40197F1F700C000001DBA10926800FA
:105310001CBC10BE1FBA10927A0010926E00109240
:105320006F0010927100109272001082ECEBF0E0AE
:10533000108214B817B81AB81DB810BA108215B870
:1053400018B81BB81EB811BA0C94003F08950E94FB
:105350009727811102C00E9405280E94A2278093EE
:10536000B7040E94AA2790E090935B0680935A06A8
:105370000E94A627682F70E080E090E00C94DC2467
:105380008091BC0480FF0BC060910D0185E0689F97
:10539000B001112475956795759567952BC081FFB0
:1053A00009C060910D0185E0689FB00111247595D9
:1053B000679520C082FF07C060910D0185E0689F5E
:1053C000B001112417C09091BD049923D1F06091D0
:1053D0000C01961788F720910D0185E0289F900118
:1053E0001124929FA001939F500D112470E0CA01D7
:1053F0000E94B7356038710540F46115710539F0C8
:1054000002C065E070E0862F08958FE7089581E07F
:1054100008958091BC0480FF08C060910B0170E08A
:10542000759567957595679521C081FF06C0609158
:105430000B0170E07595679519C082FF04C06091FB
:105440000B0170E010C09091BD049923C1F06091F0
:105450000A019617A0F780910B01899FC0011124C2
:1054600070E00E94B7356038710528F46115710548
:1054700021F0862F08958FE7089581E0089561E077
:1054800070E0F4CF803F21F40E94C029819504C0D0
:10549000813F29F40E94C0298093C1040895823F6E
:1054A00021F40E94C029819504C0833F29F40E9401
:1054B000C0298093C0040895893F19F40E94092AE5
:1054C00005C08A3F31F40E94092A81958093C20465
:1054D00008958B3F21F40E94092A819504C08C3FD6
:1054E00029F40E94092A8093C3040895843F21F47B
:1054F0008091BF04816017C0853F21F48091BF0473
:10550000826011C0863F21F48091BF0484600BC08B
:10551000873F21F48091BF04886005C0883F31F443
:105520008091BF0480618093BF0408958D3F21F472
:105530008091BC0481600BC08E3F21F48091BC043B
:10554000826005C08F3F29F48091BC048460809301
:10555000BC040895803F39F48091C10487FF6CC07A
:105560001092C10469C0813F29F48091C1041816CA
:10557000BCF362C09091C004823F29F497FF5CC0E5
:105580001092C00459C0833F19F41916CCF354C0CB
:10559000893F41F48091C20418160CF04DC010925E
:1055A000C2044AC08A3F29F48091C20487FF44C0E4
:1055B000F6CF8B3F39F48091C30487FF3DC0109232
:1055C000C3043AC08C3F29F48091C3041816BCF37D
:1055D00033C0843F21F48091BF048E7F17C0853F84
:1055E00021F48091BF048D7F11C0863F21F480910A
:1055F000BF048B7F0BC0873F21F48091BF04877F5E
:1056000005C0883F31F48091BF048F7E8093BF0432
:1056100013C08D3F21F48091BC048E7F0BC08E3F60
:1056200021F48091BC048D7F05C08F3F29F48091C7
:10563000BC048B7F8093BC048091C00481110EC098
:105640008091C10481110AC08091C204811106C0F9
:105650008091C304811102C01092BD0408958EEBA5
:1056600094E00E94E81A0E9419299093BA0480934A
:10567000B90408951F93CF93DF938091B90490915B
:10568000BA040E942529AC019091BD04992321F010
:1056900020910E0130E006C02091BB048AE0289FD3
:1056A000900111244217530708F47BC08091C00475
:1056B000C091C104D091C2041091C304811107C0EC
:1056C000C1116BC0D11169C0111167C06AC09F3F81
:1056D00019F09F5F9093BD04181624F40E94C0290E
:1056E0008093C0048091C00487FF05C00E94C02938
:1056F00081958093C0041C1624F40E94C0298093D5
:10570000C1048091C10487FF05C00E94C029819512
:105710008093C1043091C0043323E1F02091C1048F
:105720002223C1F045EB3403C0011124892F990FC6
:10573000990B009709F481E08093C00435EB2303B3
:10574000C0011124892F990F990B009709F481E06A
:105750008093C1041D1624F40E94092A8093C20478
:105760008091C20487FF05C00E94092A8195809319
:10577000C204111624F40E94092A8093C304809164
:10578000C30487FF05C00E94092A81958093C30442
:10579000DF91CF911F910C942F2B9F3F09F099CF50
:1057A000A1CFDF91CF911F910895EEEBF4E086E059
:1057B000DF011D928A95E9F71092BD041092BC0496
:1057C00008958091E40408950F931F93CF93DF937E
:1057D00000D01F92CDB7DEB78C010E94452E8230DB
:1057E00011F0843021F584E089831B830A8382E0F1
:1057F0008093E9008FEF9091E800815095FD06C0FD
:1058000095ED9A95F1F700008111F5CF8091E800B0
:1058100085FF0DC040E050E063E070E0CE010196EE
:105820000E94622E8091E8008E778093E8000F90AE
:105830000F900F90DF91CF911F910F910895CF930B
:10584000DF9300D01F92CDB7DEB7209160062430E1
:1058500031F523E02983805891099B838A8382E074
:105860008093E9008FEF9091E800815095FD06C08C
:1058700095ED9A95F1F700008111F5CF8091E80040
:1058800085FF0DC040E050E063E070E0CE0101967E
:105890000E94622E8091E8008E778093E8000F903E
:1058A0000F900F90DF91CF910895CF93DF93EC018C
:1058B0000E94452E823011F08430F9F482E080930A
:1058C000E9009FEF8091E800915085FD06C085EDCD
:1058D0008A95F1F700009111F5CF8091E80085FFDE
:1058E0000CC040E050E066E070E0CE010E94622E05
:1058F0008091E8008E778093E800DF91CF91089542
:10590000CF93DF93EC010E94452E823011F084305A
:10591000D9F580911901882339F080915A0687FFC3
:1059200003C060E282E002C068E081E08093E900A9
:105930008FEF9091E800815095FD06C095ED9A9506
:10594000F1F700008111F5CF8091E80085FF1CC0C0
:1059500080911901811105C040E050E068E070E0DD
:1059600003C070E040E050E0CE010E94622E8091C2
:10597000E8008E778093E80080E2FE01A4ECB4E0BA
:1059800001900D928A95E1F7DF91CF910895809172
:105990005F06811109C00E94F72F0E945430809148
:1059A000E20084608093E200089510925F060895FB
:1059B000089508950C94DF2842E061EC81E00E9494
:1059C000712F42E261EC82E00C94712F80916206AB
:1059D000833009F453C030F4813071F0823009F41F
:1059E0008CC008958A3009F478C08B3009F45EC009
:1059F000893009F09AC020C080916106813A09F08F
:105A000094C08091E800877F8093E80080916506CC
:105A100090916606892B21F460E284EC94E003C047
:105A200060E080E090E070E00E94AD2E8091E800A0
:105A30008B778093E800089580916106813209F0A8
:105A400074C08091650690916606029708F06DC05B
:105A50008091E800877F8093E8008091E80082FDD4
:105A600005C0809160068111F8CF5FC08091F10080
:105A70008093E4048091E8008B7753C080916106A5
:105A8000813A09F052C08091650690916606892B93
:105A900009F04BC08091E800877F8093E8008091F7
:105AA000E80080FFFCCF8091190136C0809161062B
:105AB0008132D9F58091650690916606892BA9F50A
:105AC0008091E800877F8093E8000E94A62F809154
:105AD0006306809319010C94042180916106813240
