:100000000C9484040C94A1040C94A1040C94A104F9
:100010000C94A1040C94A1040C94A1040C94A104CC
:100020000C94A1040C94A1040C94B5320C94873365
:100030000C9402290C94A1040C94A1040C94A10426
:100040000C94A1040C94A1040C94A1040C94A1049C
:100050000C94A1040C946A290C94A1040C94A1049E
:100060000C94A1040C94A1040C94A1040C94A1047C
:100070000C94A1040C94A1040C94A1040C94A1046C
:100080000C94A1040C94A1040C94A1040C94A1045C
:100090000C94A1040C94A1040C94A1040C94A1044C
:1000A0000C94A1040C94A1040C94A104F904FC0484
:1000B000FF040205050508050B05000805080F08E3
:1000C000030808080D080B0853095509600957096A
:1000D00059095B095D095F096209640966097109CB
:1000E00068096A096C096E0970097309F815FB152E
:1000F000FE150116041607160A160D16101613160D
:100100001616541E541E861E861EBD1EDD1E46205B
:10011000A4201F1FA420CC1FCC1F3D20A420A4205E
:100120009E20D91FD91FD91FD91FD91FD91FD91F49
:10013000D91FD91FD91FD91FD91FD91FD91FD91FFF
:10014000D91FEA1FF71FFE1F05200F203121312183
:10015000432143213A2143214321432131213121AC
:100160003F21432143213F21F4331B340D351B3400
:100170000D3567348A340D35E034EF3405A84CCDA5
:10018000B2D44EB93836A9020C50B9918688083CD1
:10019000A6AAAA2ABE000000803F6572676F646F3E
:1001A000785F657A2F38373236303565643166616D
:1001B000336534616532366564204020302E362E3A
:1001C0003232302D362D673438346338352D64693A
:1001D000727479000000F0A100000000000000002F
:1001E000000000000000000000000000000000000F
:1001F00000000000000000000000000000000000FF
:1002000000000000000000000000000000000000EE
:1002100000000000000000000000000000000000DE
:1002200000000000000000000000000000000000CE
:1002300000000000000000000000000000000000BE
:1002400000000000000000000000000000000000AE
:10025000000000000000000000000000000000009E
:10026000000000000000000000000000000000008E
:100270000000000000000069FFFF9AFFFF9AFFFFE7
:100280009AFFFF0EFFFF69FFFF9AFFFF9AFFFF9A99
:10029000FFFF0EFFFF0EFFFF9AFFFF9AFFFF9AFF7F
:1002A000FF0EFFFF0000000000009AFFFF0EFFFF9F
:1002B0000000000000000000000000000000000E30
:1002C000FFFF0EFFFF0EFFFF0EFFFF0EFFFF0EFFF3
:1002D000FF0EFFFF0EFFFF0EFFFF0EFFFF0EFFFFE3
:1002E0000EFFFF0EFFFF0EFFFF0EFFFF00000000DE
:1002F00000000000000000000000000000000000FE
:1003000000000000F9E4FF00000000000069FFFFAA
:1003100000000000000000000069FFFF69FFFF69A6
:10032000FFFF0000000000000000000000000000CF
:100330000023FFFF0000000000000000009AFFFF04
:1003400000000000000000000000000000000000AD
:10035000000069FFFFF9E4FF69FFFF0000000000F3
:1003600000F9E4FFF9E4FFF9E4FF000000000000F9
:10037000000000000000000000000000000000007D
:10038000000000000000000029002B00E100E10057
:10039000006300001E00140004001D00090051004D
:1003A0001F001A0016001B00E0002C0020000800AF
:1003B00007000600E2002C002100150009001900CA
:1003C000E3005200220017000A000500000001515E
:1003D00023002F000000E300000002512400300041
:1003E000000002510000500025001C000B0011000D
:1003F00000004F00260018000D00100035005200CC
:1004000027000C000E003600340028002D001200DA
:100410000F0037002F0028002E0013003300380093
:10042000300051002A0031003400E500E7000000F0
:100430002900010001000100010000003A001E0235
:10044000200222020100E75C3B001F02210223027E
:100450000100C95C3C002F0226022F000100CA5C8B
:100460003D003002270230000100C35C3E00310233
:1004700035003502000001002D00010000000100E0
:100480000000C25C2E020100000001000000E85CD8
:100490003F005200510024020000C25C40002400D2
:1004A00021001E000100E95C4100250022001F0020
:1004B0003700C55C42002600230020002700C65CF0
:1004C000430025022E0231002E00EA5C4400450064
:1004D0000100010001000000290001000100E1000D
:1004E0000100000001000100010001000100010005
:1004F0000100F900F20001000100F4000100F00029
:10050000F100F1000100F5000100FA00F300010024
:100510000100010001000100010001000000E304EE
:10052000010001000000E1000000010001000100E5
:10053000000001000000A90001000100010001000D
:100540000000E30401000100500001000100AA00C6
:10055000010052005100510001004800010001005B
:100560004F0001000100AE004C0001000100A60098
:100570006600A800010001000100E5000100000084
:1005800000000000000000002A2B280000000000EE
:100590000000000000000000000000290000000032
:1005A0002C1E3420212224342627252E362D3738A0
:1005B000271E1F202122232425263333362E3738A9
:1005C0001F0405060708090A0B0C0D0E0F10111267
:1005D000131415161718191A1B1C1D2F3130232D33
:1005E000350405060708090A0B0C0D0E0F10111231
:1005F000131415161718191A1B1C1D2F3130354CE2
:1006000000000000000000000000000000000000EA
:1006100000000000000000000000000000000000DA
:1006200000010101010101000101010100000000C0
:1006300000000000000000000000010001000101B6
:10064000010101010101010101010101010101019A
:10065000010101010101010101010100000001018D
:10066000000000000000000000000000000000008A
:100670000000000000000000000000010101010076
:10068000000000000001010101010101010102025D
:100690000202020202020203030303030303030430
:1006A00004040404040505050505060606060607F8
:1006B000070707080808080909090A0A0A0A0B0BAC
:1006C0000B0C0C0C0D0D0D0E0E0F0F0F1010111149
:1006D00011121213131414151516161717181819CA
:1006E000191A1A1B1C1C1D1D1E1F1F20202122222F
:1006F0002324252526272728292A2B2B2C2D2E2F6E
:100700002F30313233343536363738393A3B3C3D89
:100710003E3F4041424344464748494A4B4C4D4F77
:1007200050515253555657585A5B5C5E5F60626336
:10073000646667696A6C6D6E707173747678797BC4
:100740007C7E8081838486888A8B8D8F919294961B
:10075000989A9B9D9FA1A3A5A7A9ABADAFB1B3B537
:10076000B7B9BBBDBFC1C4C6C8CACCCFD1D3D6D818
:10077000DADCDFE1E4E6E8EBEDF0F2F5F7FAFCFFB6
:1007800004033000000016034500720067006F008C
:1007900044006F007800200045005A000000160356
:1007A0004500720067006F0044006F007800200071
:1007B00045005A0000000403090409023B0002013D
:1007C00000A0FA0904000001030101000921110140
:1007D00000012240000705810308000A0904010006
:1007E000010300000009211101000122C0000705DA
:1007F000820320000A1201100100000008EDFE072C
:100800001301000102030105010902A1018502098A
:1008100001A1000509190129051500250195057596
:100820000181029501750381010501093009311526
:1008300081257F95027508810609381581257F95E8
:100840000175088106050C0A38021581257F95017E
:1008500075088106C0C005010980A1018503160144
:10086000002603001A81002A83007510950181007B
:10087000C0050C0901A1018504160100269C021A7D
:1008800001002A9C02751095018100C0050109062E
:10089000A1018505050719E029E71500250195083F
:1008A0007501810205081901290595057501910257
:1008B0009501750391010507190029EF1500250120
:1008C00095F075018102C005010906A1010507190E
:1008D000E029E7150025019508750181029501754C
:1008E00008810105081901290595057501910295F1
:1008F00001750391010507190029FF150026FF0066
:10090000950675088100C00011241FBECFEFDAE004
:10091000DEBFCDBF13E0A0E0B1E0EAE3F2E702C042
:1009200005900D92A435B107D9F726E0A4E5B3E010
:1009300001C01D92A537B207E1F70E94D92F0C9490
:100940001B390C94000080B38C7080BB81B3836F23
:1009500081BB089584B1807F84B985B1807F85B9DA
:100960008AB1837F8AB98BB1837F8BB93E984698D1
:100970000895CF93E82F873090F5809104019091EE
:100980000501892B09F049C0CE2F64E670E080E4B0
:100990000E94B9199093050180930401892BD1F429
:1009A00064E670E082E10E94101A90930501809342
:1009B0000401892B79F481E090E001C0880FCA9589
:1009C000EAF764E670E080950E94101A90930501A2
:1009D0008093040184E690E0CF910C94651A90E036
:1009E000FC013797E730F105C0F4EA5AFF4F0C9449
:1009F0000E38209A289811C0219A29980EC0229A60
:100A00002A980BC0239A2B9808C0529A5A9805C06E
:100A1000539A5B9802C03E9A4698CF9108950895E4
:100A20000C940F05CF93DF930E94A10690E0909362
:100A30000501809304010E94AA040E94A304A9EA6C
:100A4000B3E025E533E0E7EBF3E04EE04E0F119223
:100A50001D9280E090E0E901C80FD91F188201962D
:100A600086309105C1F72A5F3F4F4E13F0CFDF91DB
:100A7000CF910C9478080E94A10690E09093050114
:100A8000809304010E94AA040E94A304E7EBF3E010
:100A90008EE08E0F11928E13FDCF0895CF93DF93CA
:100AA000E62FF0E0E755FC4F40814827808386E041
:100AB000689FF0011124EB5AFC4F20E030E080E009
:100AC00061E070E050E0AAE0B22F9081992319F024
:100AD0009150908307C0EB01022E01C0CC0F0A9405
:100AE000EAF78C2BEA0102C0D595C795BA95E2F7D3
:100AF000C0FDA0832F5F3F4F31962630310521F78F
:100B0000DF91CF910895CF93DF93D82F873008F0EE
:100B100040C08091040190910501892B09F042C0E9
:100B200064E670E080E40E94B91990930501809317
:100B30000401892B11F0C0E027C064E670E083E176
:100B40000E94101A9093050180930401892B99F754
:100B500064E670E081E40E94B919909305018093E6
:100B60000401892B41F784E690E00E94401A97FF28
:100B700005C09093050180930401DDCFC82FC09577
:100B8000109205011092040184E690E00E94651A1B
:100B90000AC09FB1CFB1C07FC695C6959370C92BCF
:100BA000C09501C0C0E06D2F8C2F0E944E05282FEC
:100BB0002095ED2FF0E0E954FC4F908192238C2397
:100BC000892BDF91CF910895EF92FF920F931F939E
:100BD000CF93DF938091040190910501892B91F0CF
:100BE000809154038F5F8093540381110BC00E9446
:100BF000A10690E09093050180930401892B11F4E4
:100C00000E94330687EBE82E83E0F82E0EEB13E00C
:100C1000C0E08C2F0E94B904D7E0DC0F8D2F0E941A
:100C2000B9048C2F0E948305F70181937F018D2FDA
:100C30000E948305F80181938F010E94AA04CF5F6F
:100C4000C73039F70E94840881E0DF91CF911F916E
:100C50000F91FF90EF900895E82FF0E0E954FC4FDA
:100C600080810895089556985E9825982D98269825
:100C70002E9827982F988FEF90E09093890080937B
:100C8000880090938B0080938A0090938D008093CE
:100C90008C00259A2D9A2FEF80E792E0215080401A
:100CA0009040E1F700C00000269A2E9A2FEF80E7CF
:100CB00092E0215080409040E1F700C00000279A68
:100CC0002F9A2FEF80E792E0215080409040E1F78B
:100CD00000C0000025982D982FEF80E792E021506A
:100CE00080409040E1F700C0000026982E982FEF3A
:100CF00080E792E0215080409040E1F700C0000082
:100D000027982F9856985E9825982D9826982E9873
:100D100027982F98089589EA8093800089E080932E
:100D2000810024982C983F988AB18F7C8AB96E985C
:100D3000479A8BB180638BB9769A0E9433060C94E4
:100D40001C0780E290E0909305018093040180915C
:100D5000C50381110EC00E94B31981E08093C503C1
:100D60002FEF83ED90E3215080409040E1F700C0E9
:100D7000000064E670E080E40E94B91990930501D8
:100D800080930401892B09F050C064E670E080E094
:100D90000E94101A9093050180930401892B09F099
:100DA00044C064E670E080E00E94101A9093050150
:100DB00080930401892BC9F564E670E08FE30E94FB
:100DC000101A9093050180930401892B71F584E634
:100DD00090E00E94651A64E670E080E40E94B91910
:100DE0009093050180930401892BF9F464E670E087
:100DF0008CE00E94101A9093050180930401892BC6
:100E0000A1F464E670E080E00E94101A909305015E
:100E100080930401892B49F464E670E08FE30E941B
:100E2000101A909305018093040184E690E00E94DB
:100E3000651A80910401089580E190E00E9478385D
:100E40006093F3047093F4048093F5049093F60494
:100E50000895AF92BF92CF92DF92EF92FF920F93DD
:100E60001F93CF93DF9320E9289F7001299FF00CF7
:100E70001124C0E0D0E000E010E0670182E0C80E7D
:100E8000D11C57018FEFA81AB80AF601EC0FFD1F0D
:100E9000E852FE4F8491FE01EE0DFF1DE852FE4F19
:100EA0006491F501EC0FFD1FE852FE4F7491882309
:100EB00019F08091F60401C080E00E94940E472F43
:100EC000282FC8010E94490F0F5F1F4F2396003340
:100ED0001105D9F6DF91CF911F910F91FF90EF90FF
:100EE000DF90CF90BF90AF9008950E94831781301C
:100EF000B1F460919404709195048091960490915E
:100F000097040E946227813019F0823021F0089501
:100F100081E090E002C082E090E00C9429070895FF
:100F2000611108C0FC018281882321F08AE991E0E7
:100F30000E94750880E090E00895FB01883E2CE552
:100F40009207F1F040F4863E2CE5920761F0873E6F
:100F50009C4579F039C0893E2CE59207E1F08A3E44
:100F60009C4521F131C08281882379F10E9420289B
:100F700029C08281882349F181E00E94741722C030
:100F80008281882311F181E00E9474174FEF6FEF87
:100F900080E090E015C082818823B9F081E00E9452
:100FA00074174FEF6FEF8CEA90E00AC082818823BC
:100FB00061F081E00E94741740E86FEF87ED90E0E8
:100FC0000E94881780E0089581E00895CF92DF9213
:100FD000EF92FF926B017C010E94622756985E9807
:100FE00025982D9826982E9827982F9890E0FC0108
:100FF0003197E730F105A8F4E35AFF4F0C940E380F
:10100000259A2D9A0EC0259A2D9A269A2E9A09C0B5
:10101000259A2D9A04C0259A2D9A269A2E9A279AB7
:101020002F9AC701B601FF90EF90DF90CF900895FF
:1010300081E008950C949D07CF93282F30E0F901AB
:10104000E058FA4FC491F901E050FA4F249122235D
:1010500059F081EE0E94691C8C2F0E94691C8C2F14
:101060000E94A21D81EE04C08C2F0E94691C8C2F4F
:10107000CF910C94A21D0F931F93CF93DF93EC019C
:10108000062FFE018491882359F19E012F5F3F4F67
:10109000813041F4E901F9011491812F0E94691C0A
:1010A000812F0DC0823031F4E901F90184910E9451
:1010B000691C0AC0833031F4E901F90184910E946E
:1010C000A21D02C00E941C082196802F8823C9F20D
:1010D000EFE9FFE03197F1F700C000008150F6CF53
:1010E000DF91CF911F910F91089560E00C943B0820
:1010F0000E94B227811102C00E9420280E941A1665
:101100000E94E40D0C948B060E947C158091C6030E
:10111000811102C00E94440F8091C60390E00196A5
:101120006BE070E00E94FA378093C6030C941005C0
:10113000282F2F7041F0822F90E02A3010F44D9626
:1011400008950697089587E290E0089508950C9415
:10115000A6080C94A70808950E941F210E94AB08BE
:101160002FEF84E39CE0215080409040E1F700C0E5
:1011700000000C949029FF920F931F93CF93DF935D
:101180008C01FC01C081D18180912204811113C0A6
:101190008281882349F0CE010E945226F82E682FC2
:1011A000CE010E94F52504C0CE010E942526F82E0E
:1011B000BE018F2D04C0CE010E945226BE010E94A6
:1011C000560BEC01B8010E941A08882309F466C284
:1011D000B801CE010E945F0E882309F45FC2CC3CA7
:1011E000FCE5DF0741F4F8018281882309F456C247
:1011F0000E945B1753C2CD3C8CE5D80708F01EC196
:10120000C43C9CE5D90761F4F8018281882309F484
:1012100045C20E9423278272E1F40E9470163EC2EA
:10122000C53CECE5DE0708F0C7C0C531FCE5DF07CB
:1012300098F0C23CFCE5DF0709F48CC008F492C0CA
:10124000F8018281882309F429C20E94232782722F
:1012500021F70E94561622C2C2308CE5D80708F446
:1012600052C0F8018281882309F459C00E94B22734
:10127000811102C00E9420280E94C52790E090930F
:10128000670680936606FE01E350FC45E231F105F6
:1012900030F4EC59FF4F809166060C940E38809123
:1012A0006606816027C0826025C0846023C080619B
:1012B00021C080621FC080641DC080681BC0846024
:1012C000886018C08E7F16C08D7F14C08B7F12C0BF
:1012D0008F7E10C08F7D0EC08F7B0CC08F770AC0B1
:1012E0008B7F877F07C087FB222720F991E0922719
:1012F00090FB87F980936606809166060E94C92755
:101300000E941F21CBC1C1159CE5D90781F0C130D6
:10131000DC45A9F081E08093CC038093CD03C80124
:10132000DF91CF911F910F91FF900C941808F80155
:101330008281882309F4B2C10E94AC08AFC1F801D0
:101340008281882309F4AAC18091C10481608093BD
:10135000C104A4C1F8018281882309F49FC10E94BD
:1013600048169CC1C631DC45A9F60E942327282FC8
:10137000F80182814091080150910901882379F098
:101380002A7A91E009F490E09093C703911102C08A
:1013900069E201C065E3CA010E9487280AC0809102
:1013A000C703811102C069E201C065E3CA010E945E
:1013B00092280E94F02672C1F8018281C83CFCE5A7
:1013C000DF0731F4882309F469C10E94FC1666C165
:1013D000C93C9CE5D907C8F4C63CECE5DE0731F40E
:1013E000882309F45BC10E94B61658C1C73CDC458E
:1013F00030F4882309F452C10E948A164FC1882311
:1014000009F44CC10E94E61649C1CA3C9CE5D907C3
:1014100031F4882309F442C10E942C173FC1CB3C10
:10142000DC4530F4882309F439C10E94161736C10F
:10143000882309F433C10E94461730C1C43DFCE53E
:10144000DF0791F4F8018281882309F427C10E9403
:101450008317893128F00E948317823208F4F9CE6D
:1014600089E10E9474171AC1C53D8CE5D80708F0C0
:1014700068C0F8018281C03DFCE5DF0771F4882374
:1014800009F40CC10E948317893028F00E94831749
:101490008E3008F4DECE89E0E4CFC13D9CE5D9076B
:1014A00040F5CE3CECE5DE0771F4882309F4F6C084
:1014B0000E948317823028F00E948317853008F439
:1014C000C8CE82E0CECFCF3CDC4528F4882309F497
:1014D000E5C081E0C6CF882309F4E0C00E948317ED
:1014E000863028F00E948317883008F4B2CE86E058
:1014F000B8CFC23D9CE5D90771F4882309F4CEC06A
:101500000E948317853128F00E948317873108F4E1
:10151000A0CE85E1A6CFC33DDC4570F4882309F455
:10152000BDC00E9483178F3028F00E94831784313A
:1015300008F48FCE8FE095CF882309F4AFC088E1FF
:1015400090CFC83DFCE5DF0759F5F801828188237B
:1015500061F01092CD030E9434299093CB038093C5
:10156000CA0380E20E94121E99C08091CD03882395
:1015700021F080E20E94191E91C08091CA039091CF
:10158000CB030E944029883C910598F780E20E9495
:10159000191E88E20E94691C88E20E94A21D7EC07A
:1015A000C93D8CE5D80708F058C0F8018281C63DD6
:1015B000FCE5DF0751F5882351F01092CC030E941F
:1015C00034299093C9038093C80382E0CBCF0E9453
:1015D000232785FF05C081E08093CC038093CD0352
:1015E0008091CC0381110FC08091C8039091C903F1
:1015F0000E944029883C910530F486E20E94691CD3
:1016000086E20E94A21D82E0B5CFC73DDC4528F4EA
:10161000882309F443C083E224CF81119ACF0E942A
:10162000232781FF05C081E08093CC038093CD0305
:101630008091CD0381119DCF8091CA039091CB03FE
:101640000E944029883C910508F093CF87E20E94D0
:10165000691C87E20E94A21D8CCFCC3DECE5DE0721
:1016600041F4F80182818823C9F082E00E94783039
:1016700015C0CD3DFCE5DF0739F4F80182818823F0
:1016800069F00E9420280AC0CB3DDC4509F042CE1B
:10169000F8018281882311F080E0E8CF80E0DF91BB
:1016A000CF911F910F91FF900895089596E0799F33
:1016B000F001112494E5899FE00DF11D1124E60F3E
:1016C000F11DEE0FFF1FE857FC4F8591949108958F
:1016D000880F991FFC01EC52FE4F8591949108955B
:1016E000CF93DF930E94560B0E942D0DEC018115C4
:1016F00020E59207F0F5811530E4930708F029C141
:10170000883E910500F5803E910508F0A2C1883A17
:10171000910570F4853A910508F0A3C081309105D8
:1017200009F497C108F448C1049708F092C144C174
:101730008F3B910508F4A0C0803C910508F43CC1A2
:10174000805C9109F8C08115904258F4C11581E080
:10175000D80708F07EC1C03FD10508F42DC1D0657F
:1017600078C1C11590E3D90708F0E9C0CE019F7098
:10177000E2C0811525E5920708F043C0811534E5E4
:10178000930708F0FDC0811542E5940708F5C115DF
:1017900081E5D80708F0E0C02C2F237081E090E0AD
:1017A00002C0880F991F2A95E2F79C689E0174E099
:1017B000369527957A95E1F72370922BCF70C695D1
:1017C000C69540E2C49FE0011124C82BD92B41C12A
:1017D000869586959E0123703327C115D34508F061
:1017E000C0C040E2849FC0011124C1E0D0E002C02B
:1017F000CC0FDD1F2A95E2F78C2B9D2BEC01DC68CA
:1018000028C181152AE5920798F4811539E59307D7
:1018100008F0C1C08115964508F4B7C0C11588E528
:10182000D80708F4C9C0DC2FCC27C06FD06A11C11B
:10183000C1159BE5D90708F4BFC0C1152CE5D20737
:1018400008F4B7C0CE0190568115904208F0B4C09C
:101850008D2F8F710E94AA0DDD27D0628F71D82B3A
:10186000F8C0853A910509F4AAC0863A910509F0B5
:10187000A9C0C2E8D0E4EDC0883A910509F4A5C03A
:10188000893A910509F4A4C08A3A910509F4A3C0E4
:101890008B3A910509F4A2C08C3A910509F4A1C0D4
:1018A0008B3B910509F4A0C08C3B910509F49FC0C6
:1018B0008D3A910509F49EC0803B910509F49DC0C5
:1018C0008E3A910509F49CC08F3A910509F49BC0AA
:1018D000813B910509F49AC0823B910509F499C0B6
:1018E000833B910509F498C0843B910509F497C0A6
:1018F000853B910509F496C0863B910509F495C096
:10190000873B910509F494C0883B910509F493C085
:10191000893B910509F492C08D3B910509F491C072
:101920008E3B910509F490C08A3B910509F48FC064
:10193000C0E0D4E48EC00E94680BEC018AC0CE01E6
:101940009927D3FF03C0EC01D86C83C0EC01D06CA5
:1019500080C0DF70D06A7DC0DC2FCC27C16FD06A19
:1019600078C040E2849FC0011124C1E0D0E002C0F1
:10197000CC0FDD1F2A95E2F7C82BD92BDA6869C096
:10198000D82FCC27C46FD06A64C0CF71DD27DC2F7D
:10199000CC27D0625EC08F70806E90E0906A24E0A9
:1019A000D695C7952A95E1F7CF709C013C2BE901AC
:1019B00050C0DD27D0664DC0C0E0D0E04AC0C1E8CD
:1019C000D0E447C0C3E8D0E444C0C2EED4E441C090
:1019D000C9EED4E43EC0CAEED4E43BC0C5EBD4E4C7
:1019E00038C0C6EBD4E435C0C3EBD4E432C0C4EB9A
:1019F000D4E42FC0C7EBD4E42CC0CCECD4E429C091
:101A0000CDECD4E426C0C3E8D5E423C0CAE8D5E4CD
:101A100020C0C2E9D5E41DC0C4E9D5E41AC0C1E2C2
:101A2000D6E417C0C3E2D6E414C0C4E2D6E411C0C1
:101A3000C5E2D6E40EC0C6E2D6E40BC0C7E2D6E4E7
:101A400008C0CFE6D4E405C0C0E7D4E402C0CAE2CF
:101A5000D6E4CE01DF91CF9108958238910549F106
:101A6000B0F48133910509F458C048F489329105E6
:101A700009F44EC08A32910509F454C008958533A3
:101A8000910509F440C08933910599F00895833E8A
:101A9000910529F138F4803E910591F0823E91053F
:101AA000A1F00895863E9105F9F0873E910531F148
:101AB00008952091660620FD3AC021FD38C00895A2
:101AC0008091660680FD35C032C08091660682FF37
:101AD00032C08091660684FD30C083EE39C08091AB
:101AE000660682FD28C0F5CF8091660683FF27C079
:101AF0008091660684FD21C087EE2AC0809166062B
:101B000083FD1DC0F5CF8091660685FD1AC01BC000
:101B10008091660685FD17C014C08091660686FD1B
:101B200014C015C08091660686FD11C00EC080EEFF
:101B30000FC089E30DC082EE0BC080E009C086EEC5
:101B400007C089E205C085E303C08AE201C081E3E2
:101B500090E008959091660692FF0DC0282F28719D
:101B6000283019F4877F846006C0282F2471243020
:101B700011F48B7F886093FF0DC0282F28712831C6
:101B800019F4877E846106C0282F2471243111F452
:101B90008B7E886194FD877E0895CF93DF9381309B
:101BA00020E8920768F0FB012281222349F0EC0132
:101BB0000E94FA0DCE019F770E94420E0E942F0EC6
:101BC00081E0DF91CF9108958CE090E00E94703821
:101BD00090E0A0E0B0E08093F8049093F904A09323
:101BE000FA04B093FB0408956091F8048CE090E04F
:101BF0000C9484380E9423278093CE030E943627BA
:101C00008091F804813071F048F08230D9F084304E
:101C1000F9F486EE0E940A1E88E118C082EE0E9446
:101C2000691C16C080EE0E94691C81EE0E94691C2E
:101C300088E10E940A1E81EE0E94A21D80EE0E9491
:101C4000A21D06C082EE0E94691C87E50E940A1E42
:101C50008FE39CE90197F1F700C00000089580919F
:101C6000F804813021F038F0823029F007C08CE28E
:101C70000E940A1E03C082EE0E94A21D8091CE0324
:101C80000C9433270F931F93CF93DF938C01CCE0F9
:101C9000D0E0C8010C2E02C0969587950A94E2F711
:101CA0008F700E9498080E940A1E2497CC3F8FEFE5
:101CB000D80779F7DF91CF911F910F9108950F9376
:101CC0001F93CF93DF93EC018B01FB01828188236B
:101CD00019F1C23EFCE5DF07C1F050F4C03EECE56F
:101CE000DE0781F0C13EFCE5DF07B1F481E010C002
:101CF000C33E8CE5D80759F0C43EECE5DE0761F43D
:101D000084E006C01092F80405C082E001C083E0C0
:101D10008093F8040E94F40DB801CE01DF91CF91B9
:101D20001F910F910C94CD0DCF92DF92EF92FF9205
:101D30000F931F93CF93DF93E82FF82F711103C0F8
:101D4000682F782F7EC0062F10E0C72FD0E0E82E36
:101D5000F12CC8016BE270E00E94E6379B0145ED73
:101D60004203B001439F700D1124060F171F86E038
:101D7000809FB001819F700D11244FEF50E0CA0188
:101D80008C1B9D0B8E9DD0018F9DB00D9E9DB00D27
:101D900011248B2F6C9F80016D9F100D7C9F100D67
:101DA0001124012F11276A01C01AD10ACE9C80018B
:101DB000CF9C100DDE9C100D11246A01C61AD70AA3
:101DC000CC9EB001CD9E700DDC9E700D1124672F4E
:101DD0007727461B570B4E9DE0014F9DD00D5E9D12
:101DE000D00D11247D2F2230310599F04CF42115AE
:101DF0003105C9F021303105A1F47E2FE12F13C048
:101E00002330310551F02430310559F4ED2F7B2F6B
:101E100006C0EB2F8D2F7F2F06C0712FEB2F8F2F3A
:101E200002C07B2F812FF0E0E058F94F6491E72F3B
:101E3000F0E0E058F94F7491E82FF0E0E058F94FE6
:101E40008491DF91CF911F910F91FF90EF90DF90E0
:101E5000CF90089580E190E00C947838AB01BC01FC
:101E600080E190E00C949638E3EFF4E08DE080831D
:101E70001092F4048FEF82838383148260817181D6
:101E8000828193810C942E0FE0914803F0914903D5
:101E90000994E0914403F09145030994E0914603CD
:101EA000F0914703099440E060E080E00C944E0F0D
:101EB000E3EFF4E06081862F881F8827881F6091F8
:101EC000F404660F682B728183810E94940E962F12
:101ED000672F482F892F0C944E0FDF92EF92FF92BD
:101EE0000F931F93CF93DF938091F304881F88276C
:101EF000881F9091F404492F440F242F282B97FB1F
:101F0000332730F9C9018C549F4F68E671E00E9475
:101F1000FA37821B930B8038910514F09A9505C00F
:101F200081384FEF94070CF4939597FD03969595A0
:101F3000879595958795C82F8091F504281B3109C1
:101F400037FF02C02D5F3F4F359527953595279573
:101F5000D22FD090F6049CE1E92E91E0F92E00E01A
:101F600010E0F701208122952F706091F304962FE5
:101F7000991F9927991F6091F404660F692B2C9F74
:101F8000600D11247091F5042D9F700D11248D2D7D
:101F90000E94940E472F282FC8010E94490F0F5FFF
:101FA0001F4FF4E0EF0EF11C00331105D1F6DF9165
:101FB000CF911F910F91FF90EF90DF900895AF9216
:101FC000BF92CF92DF92EF92FF920F931F93CF9326
:101FD000DF931F92CDB7DEB7D82E2091F304221FD6
:101FE0002227221F8091F404982F990FB22EB92A2C
:101FF00087FB882780F9EB2DF82FCF018C549F4F5A
:1020000068E671E00E94FA379C012E1B3F0B37FFF8
:1020100002C02D5F3F4F3595279535952795A22E08
:10202000C090F5040091D5031091D6032091D703F9
:102030003091D8039091F704992359F0692F70E0FB
:102040008AE090E00E94FA37CB01770FAA0BBB0B16
:1020500004C08AE090E0A0E0B0E080239123A223B6
:10206000B323892B8A2B8B2B41F40E94603860E3C9
:1020700070E00E94FA37082F01C00FEFE12CF12C1D
:1020800010E0D11003C0E016F106A9F40E946038F8
:1020900083706B2D8A9D600D112469830E946038C6
:1020A00069817C2D8091F6040E94940E472F282F81
:1020B000C7010E94490F8FEFE81AF80A80E3E8167B
:1020C000F104F9F60F90DF91CF911F910F91FF90DE
:1020D000EF90DF90CF90BF90AF900895CF92DF92B6
:1020E000EF92FF921F93CF93DF938091D50390914E
:1020F000D603A091D703B091D8030090F70404C091
:10210000880F991FAA1FBB1F0A94D2F7182F8AE1C4
:10211000C82E81E0D82EC0E0D0E09FE3E92EF12C5C
:10212000F60180818F3FE1F0FE01E450FB4F80819A
:10213000F4E08F9FC00111248034910524F4B7018D
:10214000681B790B02C060E070E0610F7FEF809147
:10215000F6040E94940E472F282FCE010E94490FAB
:10216000219624E0C20ED11CC033D105C9F6DF91FF
:10217000CF911F91FF90EF90DF90CF900895CF9275
:10218000DF92EF92FF920F931F93CF93DF93809193
:10219000D5039091D603A091D703B091D8030090B6
:1021A000F70404C0880F991FAA1FBB1F0A94D2F717
:1021B000D82EC090F6040AE111E0C0E0D0E08FE331
:1021C000E82EF12CF80180818F3FF9F0FE01E450F8
:1021D000FB4F2081F4E02F9F900111242034310522
:1021E0002CF4C701821B930B9C0102C020E030E05D
:1021F000F80161816D0D620F7FEF8C2D0E94940EAE
:10220000472F282FCE010E94490F21960C5F1F4FA8
:10221000C033D105B9F6DF91CF911F910F91FF9097
:10222000EF90DF90CF900895CF92DF92EF92FF92E0
:102230000F931F93CF93DF938091D5039091D60393
:10224000A091D703B091D8030090F70404C0880F81
:10225000991FAA1FBB1F0A94D2F7D82EC090F6046C
:102260000AE111E0C0E0D0E08FE3E82EF12CF801A4
:1022700080818F3FF9F0FE01E450FB4F2081F4E0B4
:102280002F9F90011124203431052CF4C701821BAB
:10229000930B9C0102C020E030E0F80162816D0DDB
:1022A000620F7FEF8C2D0E94940E472F282FCE01B6
:1022B0000E94490F21960C5F1F4FC033D105B9F61C
:1022C000DF91CF911F910F91FF90EF90DF90CF9012
:1022D00008952F923F924F925F926F927F928F92CA
:1022E0009F92AF92BF92CF92DF92EF92FF920F93A5
:1022F0001F93CF93DF933090F5042090F604609104
:10230000D5037091D6038091D7039091D8030E9492
:102310005B362BED3FE049E450E40E94283720E093
:1023200030E040E05CE30E9428376B017C010E94B2
:10233000AE3520E030E040E05DE30E9428372B011D
:102340003C01C701B6010E94953720E030E040EE25
:1023500052E40E94B3354B015C01CCE1D1E000E0D6
:1023600010E0688170E080E090E00E945D3620E03F
:1023700030E040E052E40E944135A30192010E9406
:1023800028376B017C01FE013197608170E080E0AD
:1023900090E00E945D3620E030E040EE52E40E9482
:1023A0004135A50194010E9428379B01AC01C7016A
:1023B000B6010E94423520E030E044E353E40E943D
:1023C00028376B017C018091F304881F8827881FC0
:1023D0009091F404292F220F622F682B97FB772707
:1023E00070F9072E000C880B990B0E945D369B013B
:1023F000AC01C701B6010E9442350E942C36732DF4
:10240000822D0E94940E472F282FC8010E94490F49
:102410000F5F1F4F24960033110509F0A2CFDF9103
:10242000CF911F910F91FF90EF90DF90CF90BF90D1
:10243000AF909F908F907F906F905F904F903F9064
:102440002F9008952F923F924F925F926F927F92BA
:102450008F929F92AF92BF92CF92DF92EF92FF92B4
:102460000F931F93CF93DF93CDB7DEB728970FB6A7
:10247000F894DEBF0FBECDBF8091F5048D8390919F
:10248000F6049E836091D5037091D6038091D703A3
:102490009091D8030E945B362BED3FE049E450E475
:1024A0000E94283720E030E040E05CE30E942837BB
:1024B0006B017C010E94AE352B013C01C701B601C6
:1024C0000E94953769837A838B839C83ECE1F1E0EA
:1024D000F887EF8300E010E0EF81F88531972080E6
:1024E000EF81F885B0803090F704332079F0632DC8
:1024F00070E080E090E00E945D3620E030E040EC4B
:102500005FE30E9428376B017C0106C0C12CD12CEF
:1025100090ECE92E9FE3F92E6B2D70E080E090E0C7
:102520000E945D3620E030E040E052E40E944135F8
:102530009B01AC01C701B6010E942837A30192019B
:102540000E9428374B015C01332079F0632D70E045
:1025500080E090E00E945D3620E030E040EC5FE3F8
:102560000E9428376B017C0106C0C12CD12C80EC65
:10257000E82E8FE3F82E622D70E080E090E00E945C
:102580005D3620E030E040EE52E40E9441359B0190
:10259000AC01C701B6010E94283729813A814B81DD
:1025A0005C810E9428379B01AC01C501B4010E94E7
:1025B00042356B017C018091F304881F8827881FB6
:1025C0009091F404292F220F622F682B97FB772715
:1025D00070F9072E000C880B990B0E945D369B0149
:1025E000AC01C701B6010E9442350E942C367D81A4
:1025F0008E810E94940E472F282FC8010E94490FF8
:102600000F5F1F4F8F819885049698878F830033C3
:10261000110509F061CF28960FB6F894DEBF0FBE02
:10262000CDBFDF91CF911F910F91FF90EF90DF9081
:10263000CF90BF90AF909F908F907F906F905F9062
:102640004F903F902F9008952F923F924F925F921C
:102650006F927F928F929F92AF92BF92CF92DF92B2
:10266000EF92FF920F931F93CF93DF9300D000D090
:102670001F92CDB7DEB72091F5042A838091F6042E
:102680008B836091D5037091D6038091D70390918D
:10269000D8030E945B362BED3FE049E450E40E94F2
:1026A000283720E030E040E05CE30E9428376B01EF
:1026B0007C010E94AE352B013C01C701B6010E948E
:1026C00095374B015C01ACE1B1E0BD83AC8300E028
:1026D00010E0EC81FD813197B081B983EC81FD81FF
:1026E00030802090F704222069F0622D70E0660FA0
:1026F000771F072E000C880B990B0E945D366B012B
:102700007C0105C0C12CD12CE12C20E4F22E632DDC
:1027100070E080E090E00E945D3620E030E040E034
:1027200052E40E9441359B01AC01C701B6010E94F1
:102730002837A30192010E9428376B017C012220D7
:1027400021F0312C220C331C03C082E0282E312CC6
:10275000F9816F2F70E080E090E00E945D3620E00C
:1027600030E040EE52E40E9441350E9425369B0144
:1027700077FF04C022273327261B370B82E490E023
:10278000821B930B289EB001299E700D389E700D00
:102790001124072E000C880B990B0E945D36A501B1
:1027A00094010E9428379B01AC01C701B6010E9429
:1027B00042356B017C018091F304881F8827881FB4
:1027C0009091F404292F220F622F682B97FB772713
:1027D00070F9072E000C880B990B0E945D369B0147
:1027E000AC01C701B6010E9442350E942C367A81A5
:1027F0008B810E94940E472F282FC8010E94490FF9
:102800000F5F1F4F8C819D8104969D838C830033C5
:10281000110509F05ECF0F900F900F900F900F9061
:10282000DF91CF911F910F91FF90EF90DF90CF90AC
:10283000BF90AF909F908F907F906F905F904F90E0
:102840003F902F9008952F923F924F925F926F92F8
:102850007F928F929F92AF92BF92CF92DF92EF9230
:10286000FF920F931F93CF93DF9300D01F92CDB7AA
:10287000DEB72090F5048091F60489836091D5033A
:102880007091D6038091D7039091D8030E945B3654
:1028900020E030E040E85BE30E94283720E030E0B1
:1028A00040E653E40E9428372B013C01ECE1F1E0C3
:1028B000FB83EA8300E010E0EA81FB8131973080FE
:1028C000EA81FB81E080F090F704FF2079F06F2D22
:1028D00070E080E090E00E945D3620E030E040EC67
:1028E0005FE30E9428374B015C0106C0812C912CCC
:1028F00090ECA92E9FE3B92E6E2D70E080E090E061
:102900000E945D3620E030E040E052E40E94413514
:102910000E9425369B0177FF04C022273327261B00
:10292000370BB901330F880B990B0E945D369B0161
:10293000AC01C501B4010E9428372EE23DEB4BEB00
:1029400053EB0E9428374B015C01FF2079F06F2D7B
:1029500070E080E090E00E945D3620E030E040ECE6
:102960005FE30E9428376B017C0106C0C12CD12C8B
:1029700080ECE82E8FE3F82E632D70E080E090E08D
:102980000E945D36A30192010E9441359B01AC017A
:10299000C701B6010E9428379B01AC01C501B401F3
:1029A0000E9441356B017C018091F304881F8827C8
:1029B000881F9091F404292F220F622F682B97FB18
:1029C000772770F9072E000C880B990B0E945D3653
:1029D0009B01AC01C701B6010E9442350E942C3612
:1029E000722D89810E94940E472F282FC8010E94C2
:1029F000490F0F5F1F4F8A819B8104969B838A83B7
:102A00000033110509F058CF0F900F900F90DF9110
:102A1000CF911F910F91FF90EF90DF90CF90BF90DB
:102A2000AF909F908F907F906F905F904F903F906E
:102A30002F900895CF92DF92FF920F931F93CF9321
:102A4000DF931F92CDB7DEB7F82E0091D50310911A
:102A5000D6032091D7033091D8039091F70499239E
:102A600059F0692F70E08AE090E00E94FA37AB01DC
:102A7000770F660B770B04C04AE050E060E070E02F
:102A80004023512362237323452B462B472B39F4D4
:102A90000E94603860E370E00E94FA3701C08FEF57
:102AA00000E010E0C82ED12CF11003C00C151D055C
:102AB00081F40E94603889830E946038782F698190
:102AC0008091F6040E94940E472F282FC8010E947F
:102AD000490F0F5F1F4F0033110531F70F90DF9142
:102AE000CF911F910F91FF90DF90CF90089508959F
:102AF0000E9477150C9475074091F30440FD0AC0BD
:102B00000E94530F0E9478158091F3048170809386
:102B1000070108958091CF03843120F48F5F809363
:102B2000CF0308958091D5039091D603A091D70348
:102B3000B091D8030196A11DB11D8093D503909348
:102B4000D603A093D703B093D8038091D10390917B
:102B5000D203A091D303B091D4038F3F2FEF9207FC
:102B6000A207B20759F00196A11DB11D8093D103B0
:102B70009093D203A093D303B093D4038091D00356
:102B8000ECEFF4E090819F3F61F09E3F41F4282FED
:102B900030E02230310514F0815001C080E09F5FA9
:102BA0009083319695E0EC32F90761F78093D0037A
:102BB000E42FE695EF7380910601E81307C081E0EA
:102BC00090910701913019F480E001C081E081709B
:102BD000E093060191E0909307014E2F50E0FA0137
:102BE0003197EB30F10520F5EA58FF4F0C940E3881
:102BF0000E94580F1DC00E9469111AC00E946D0FDB
:102C000017C00E94DF0F14C00E946E1011C00E94F6
:102C1000BF100EC00E9414110BC00E94221208C0E7
:102C20000E94241305C00E94231402C00E941A159A
:102C30000C947815E0914203F09143030995ECEF71
:102C4000F4E08FEF819395E0EC32F907D9F70E9419
:102C5000B227811104C00E9420280E94340F0E94D4
:102C60002A0F6093F3047093F4048093F504909317
:102C7000F6046E7761F40E94340F0E942A0F60936D
:102C8000F3047093F4048093F5049093F60408958C
:102C9000E3EFF4E08081982F909590FB80F980839A
:102CA00060817181828193810C942E0F9091F30445
:102CB000892F86958F5F8F7391788C3018F4880FE9
:102CC000892B02C0892F82608093F3046091F30402
:102CD0007091F4048091F5049091F6040C942E0FF9
:102CE0009091F304892F8695815C8F739178882366
:102CF00019F0880F892B02C0892F86618093F30415
:102D00006091F3047091F4048091F5049091F604BD
:102D10000C942E0F8091F304982F991F9927991FD7
:102D20008091F404880F892B90E008968F3F9105DD
:102D300019F014F08FEF90E02091F30480FB27F955
:102D40002093F304282F26958091F4048078822B19
:102D500090FB87F98093F4046091F3047091F4047C
:102D60008091F5049091F6040C942E0F8091F30459
:102D7000982F991F9927991F8091F404880F892B08
:102D800090E0089797FF02C080E090E08F3F9105A8
:102D900019F014F08FEF90E02091F30480FB27F9F5
:102DA0002093F304282F26958091F4048078822BB9
:102DB00090FB87F98093F4046091F3047091F4041C
:102DC0008091F5049091F6040C942E0F8091F504F7
:102DD00090E008968F3F910519F014F08FEF90E086
:102DE0008093F5046091F3047091F4048091F504EC
:102DF0009091F6040C942E0F8091F50490E00897C2
:102E000097FF02C080E090E08F3F910519F014F029
:102E10008FEF90E08093F5046091F3047091F404D7
:102E20008091F5049091F6040C942E0F8091F60495
:102E300090E008968F3F910519F014F08FEF90E025
:102E40008093F6046091F3047091F4048091F5048A
:102E50009091F6040C942E0F8091F60490E0089760
:102E600097FF02C080E090E08F3F910519F014F0C9
:102E70008FEF90E08093F6046091F3047091F40476
:102E80008091F5049091F6040C942E0F8091F70434
:102E900090E001968430910514F083E090E08093F7
:102EA000F7046091F3047091F4048091F50490911B
:102EB000F6040C942E0F8091F70490E0019797FF91
:102EC00002C080E090E08430910514F083E090E04F
:102ED0008093F7046091F3047091F4048091F504F9
:102EE0009091F6040C942E0FE3EFF4E08F73982F7B
:102EF000990F80818178892B8083608171818281A3
:102F000093810C942E0F8091F30486958F7308950E
:102F1000E3EFF4E0208180FB27F92083A4EFB4E005
:102F200086952C912078822B90FB87F98C93628375
:102F3000438360817181828193810C942E0F67E7B6
:102F400084E70C947419CF930E94B31984E70E940C
:102F5000F91787E70E94F917C0E021E041E061E03E
:102F60008C2F0E948B18CF5FC033B9F767E784E7D7
:102F7000CF910C948719ECE4F6E06083418324E65A
:102F800030E042E050E0BF01880F0C94891AEF92C4
:102F9000FF921F93CF93DF937B01182F110FC0E097
:102FA000D0E08C2F8C5D80934C0620E030E0F9015E
:102FB000EC0FFD1FEE0DFF1D8081F901E45BF94F61
:102FC00081832F5F3F4F2031310589F724E630E0C0
:102FD00041E150E06CE476E0812F0E94891A60960E
:102FE000C039D105F1F6DF91CF911F91FF90EF909D
:102FF0000895CF93DF93C82F4BE06DEF0E94BB176E
:1030000040E06AE08C2F0E94BB178FE39CE9019798
:10301000F1F700C0000040E060E08C2F0E94BB1779
:1030200040E061E08C2F0E94BB1740E066E08C2FEF
:103030000E94BB1740E06DEF8C2F0E94BB17D0E0C1
:1030400040E06D2F8C2F0E94BB17DF5FD231C1F79C
:1030500040E06D2F8C2F0E94BB17DF5FD432C1F789
:1030600040E06D2F8C2F0E94BB17DF5FD43BC1F770
:103070004BE06DEF8C2F0E94BB1741E06AE08C2F74
:103080000E94BB1740E06DEF8C2FDF91CF910C9425
:10309000BB178033910520F5880F991F880F991F62
:1030A000FC01E652FE4F5281338180818370718131
:1030B000E0E98E9FC0011124845D9A4FFC01E70F67
:1030C000F11DB4976083FC01E50FF11DB4974083B7
:1030D000830F911DFC01B497208381E08093FE0350
:1030E0000895FF920F931F93CF93DF93182F062F0E
:1030F000F42EC0E0D0E02F2D402F612FCE010E9492
:1031000049182196C033D105B1F7DF91CF911F91B6
:103110000F91FF9008954F925F927F928F929F92AE
:10312000AF92BF92CF92DF92EF92FF920F931F93D5
:10313000CF93DF93362F54E0859FC0011124FC010B
:10314000E652FE4FA081A3707A2E618170E0CB0120
:1031500084978C0197FF02C0095F1F4FA3E015956C
:103160000795AA95E1F7628170E07B0154E2E51AC8
:10317000F108E701F7FC279673E0D595C7957A9596
:10318000E1F7638170E04B01E4E28E1A9108F401EB
:1031900097FC37962F0153E0559447945A95E1F7E1
:1031A00068E0A62EB12CB5010E94FA376C01C70168
:1031B000B5010E94FA377C01C401B5010E94FA37BB
:1031C000A72DB0E01127DD243323A1F032E13A9F8F
:1031D000B0013B9F700D1124060F171F06521C4FA4
:1031E00061E070E001C0660FCA94EAF7F80130812F
:1031F000632B14C032E13A9FB0013B9F700D112444
:10320000060F171F06521C4F61E070E001C0660FE9
:10321000CA94EAF76095F801308163236083DD2763
:10322000FF2432E1442391F03A9FA0013B9F500DCF
:103230001124C40FD51FC652DC4F41E050E001C03D
:10324000440FEA94EAF73881432B12C03A9FA00159
:103250003B9F500D1124C40FD51FC652DC4F41E0D7
:1032600050E001C0440FEA94EAF7409538814323C7
:103270004883A2015527992792E19A9FF0019B9FCD
:10328000F00D1124E40FF51FE652FC4F222361F0EC
:1032900021E030E0A90102C0440F551F8A95E2F7F2
:1032A000CA019081892B0CC021E030E0A90102C045
:1032B000440F551F8A95E2F7CA01809590818923B2
:1032C000808381E08093D903DF91CF911F910F918B
:1032D000FF90EF90DF90CF90BF90AF909F908F9036
:1032E0007F905F904F900895CF939091FE03992324
:1032F00051F0C62F6CE275E00E94C7176CEB75E0C9
:103300008C2F0E94C7171092FE03CF910895EF9261
:10331000FF920F931F93CF93DF939091D90399233B
:10332000D9F0162F082F8AEDE82E83E0F82EC0E0A2
:10333000D0E0F70141917F016C2F802F0E94BB17D5
:10334000FE01E652FC4F42896C2F812F0E94BB1771
:103350002196C231D10569F7DF91CF911F910F916D
:10336000FF90EF9008951092B9008CE08093B80020
:103370000895EF92FF920F931F93CF93DF93182F2F
:10338000EB011092BC0084EA8093BC000E943429B7
:103390007C019091BC0097FD0EC0CF3F8FEFD80706
:1033A000C1F30E9434298E199F098C179D0788F359
:1033B0008EEF9FEF2EC09091B900987F983041F02A
:1033C0009091B900987F903119F08FEF9FEF21C055
:1033D0001093BB0084E88093BC000E9434298C01C8
:1033E0009091BC0097FD0CC0CF3F8FEFD807C1F381
:1033F0000E943429801B910B8C179D0788F3D8CF2E
:103400008091B900887F883111F08034F1F680E036
:1034100090E0DF91CF911F910F91FF90EF90089571
:103420000F931F93CF93DF93EB018093BB0084E84E
:103430008093BC000E9434298C019091BC0097FDC0
:103440000EC0CF3F8FEFD807C1F30E943429801BF5
:10345000910B8C179D0788F38EEF9FEF0CC0209186
:10346000B900287F81E090E0283211F480E090E0FC
:10347000919581959109DF91CF911F910F910895B9
:103480000F931F93CF93DF93EC0184E88093BC00EC
:103490000E9434298C019091BC0097FD0EC0CF3F53
:1034A0008FEFD807C1F30E943429801B910B8C1732
:1034B0009D0788F38EEF9FEF03C08091BB0090E0E3
:1034C000DF91CF911F910F9108950F931F93CF9389
:1034D000DF93EC0184E98093BC000E9434298C01C5
:1034E0009091BC0094FF0EC0CF3F8FEFD807C1F37F
:1034F0000E943429801B910B8C179D0788F38EEF57
:103500009FEF02C080E090E0DF91CF911F910F917B
:103510000895CF92DF92EF92FF920F931F93CF9374
:10352000DF936B017A018901B9010E94B919FC018D
:10353000892BC9F4E601EC0CFD1CCE15DF0541F02A
:10354000B80189910E94101AFC01892BB1F30BC0BC
:10355000C801DF91CF911F910F91FF90EF90DF9005
:10356000CF900C94651ACF01DF91CF911F910F91ED
:10357000FF90EF90DF90CF90089590930404809394
:1035800003040895E0910304F0910404309721F0BE
:103590000190F081E02D099480E00895E09103040A
:1035A000F0910404309799F020911901222359F0E9
:1035B0002091660627FF07C0DC012C9111962C9301
:1035C000119725E02C930280F381E02D0994089552
:1035D000E0910304F0910404309739F022E0DC011B
:1035E0002C930480F581E02D099408952091010425
:1035F000309102048217930771F090930204809334
:103600000104E0910304F0910404309721F0068056
:10361000F781E02D099408952091FF033091000473
:103620008217930771F0909300048093FF03E09159
:103630000304F0910404309721F00084F185E02D1B
:103640000994089585B7806885BF85B7806885BF70
:10365000089508950E94221B0C94291B81E008956F
:103660000E942B290E9412050C94C229CF92DF924E
:10367000EF92FF920F931F93CF93DF93CDB7DEB7F7
:103680002B970FB6F894DEBF0FBECDBF0E94E405A6
:103690000E942E1B811111C08FEF89838A831B82A8
:1036A0000E9434298160782F9D838C8349815A81BF
:1036B0006B818D810E941A1C56C086E0C82E84E062
:1036C000D82E00E010E0E02E802F0E942C06F6019C
:1036D00041916F01F42EF82631F40F5F1F4F0E3029
:1036E000110589F7D9CF9091C10491FF04C08B8750
:1036F0000E9432068B8520E030E04F2D50E0922F63
:10370000BA01022E02C0759567950A94E2F760FF30
:1037100024C02E83EF8221E030E0690102C0CC0C8E
:10372000DD1C9A95E2F790E08C219D21892B09F40C
:1037300020E028870E9434298160782F9A87898722
:103740004E815F8168858A850E941A1CF801EA5FB4
:10375000FB4F8081C826C08206C02F5F3F4F2630B6
:10376000310569F6BACF0E94552B109105040E94CD
:10377000C21A1817A1F00E94C21A809305042B9652
:103780000FB6F894DEBF0FBECDBFDF91CF911F9172
:103790000F91FF90EF90DF90CF900C94A9082B969B
:1037A0000FB6F894DEBF0FBECDBFDF91CF911F9152
:1037B0000F91FF90EF90DF90CF900895DC0111966C
:1037C0002C9111978C91682F70E041E050E001C07E
:1037D000440F8A95EAF712968C91129730E088236D
:1037E00029F0809124048823E9F006C0F901EC5EF9
:1037F000FB4F90819423B1F086E0829FF001839F7C
:10380000F00D1124E60FF71FEE0FFF1FE656FD4FD8
:10381000808191818D939C93F901EC5EFB4F8081B7
:10382000482B06C0F901EC5EFB4F40958081482390
:1038300040830895CF93DF93CDB7DEB72B970FB6B4
:10384000F894DEBF0FBECDBF942F4F83252F58872E
:1038500069877A878B874A855B85452B21F02F3FC7
:1038600009F59F3FF9F4DE01119686E0FD01119202
:103870008A95E9F785E0FE01379601900D928A95C9
:10388000E1F749815A816B817C818D819E810E9403
:10389000C6232B960FB6F894DEBF0FBECDBFDF91C7
:1038A000CF910895CE0107960E94DE1BDCCFFC016C
:1038B000808191810E94912692959F70963041F46B
:1038C0008091240491E08927809324049093230419
:1038D0000895CF93DF931F92CDB7DEB7882309F405
:1038E0002DC1682F8238C1F40E94C21A81FD26C101
:1038F00069E380910801909109010E9487280E9444
:10390000F0262FEF81EE94E0215080409040E1F7C7
:1039100000C0000069E319C0833811F50E94C21A83
:1039200080FD0CC163E580910801909109010E941E
:1039300087280E94F0262FEF81EE94E021508040EE
:103940009040E1F700C0000063E58091080190918C
:1039500009010E9492280F90DF91CF910C94F026DC
:103960008438C1F40E94C21A82FDE8C067E48091E5
:103970000801909109010E9487280E94F0262FEFEC
:1039800081EE94E0215080409040E1F700C00000BB
:1039900067E4DBCF8CEF860F813A70F4862F698362
:1039A0000E948B2D69818111C9C08091080190917D
:1039B00009010E948728CFCF80E2860F883048F423
:1039C000677081E001C0880F6A95EAF70E94262798
:1039D000C2CF8BE5860F833088F4653A29F0663ACA
:1039E00031F083E890E005C081E890E002C082E811
:1039F00090E00F90DF91CF910C94F61A88E5860F36
:103A0000873108F091C0683A09F445C0693A09F471
:103A100045C06A3A09F445C06B3A09F445C06C3AAE
:103A200009F445C06B3B09F445C06C3B09F445C043
:103A30006D3A09F445C0603B09F445C06E3A09F49B
:103A400045C06F3A09F445C0613B09F445C0623B8B
:103A500009F445C0633B09F445C0643B09F445C023
:103A6000653B09F445C0663B09F445C0673B09F472
:103A700045C0683B09F445C0693B09F445C06D3B4E
:103A800009F445C06E3B09F445C06A3B09F445C0E2
:103A900080E090E044C082EE90E041C089EE90E08A
:103AA0003EC08AEE90E03BC085EB90E038C086EBEC
:103AB00090E035C083EB90E032C084EB90E02FC003
:103AC00087EB90E02CC08CEC90E029C08DEC90E06E
:103AD00026C083E891E023C08AE891E020C082E913
:103AE00091E01DC084E991E01AC081E292E017C024
:103AF00083E292E014C084E292E011C085E292E099
:103B00000EC086E292E00BC087E292E008C08FE62A
:103B100090E005C080E790E002C08AE292E00F905A
:103B2000DF91CF910C940C1B603F40F0862F0E94D8
:103B30005D2A0F90DF91CF910C944A2B0F90DF916B
:103B4000CF910895882309F464C0823879F40E94E3
:103B5000C21A81FF5EC069E380910801909109015A
:103B60000E9487280E94F02669E310C08338B1F4D0
:103B70000E94C21A80FF4DC063E5809108019091B8
:103B800009010E9487280E94F02663E580910801C0
:103B9000909109010E9492280C94F026843879F4BF
:103BA0000E94C21A82FF35C067E48091080190919B
:103BB00009010E9487280E94F02667E4E7CF9CEF66
:103BC000980F913A10F4682FE1CF90E2980F983057
:103BD00050F4877091E001C0990F8A95EAF7892F18
:103BE0000E942C27D9CF9BE5980F933020F480E0DA
:103BF00090E00C94F61A98E5980F973120F480E045
:103C000090E00C940C1B803F20F00E94C52A0C947D
:103C10004A2B0895CF93C82F0E94691C8C2FCF91F7
:103C20000C94A21D882321F00E9426270C94F026D4
:103C30000895882321F00E942C270C94F0260895E3
:103C40008F929F92AF92BF92DF92EF92FF920F936B
:103C50001F93CF93DF937C01D62FC72FFC010581E3
:103C600002950F70128111110E9446270E94E926C9
:103C7000882379F0112369F080E28D0F883048F0B5
:103C800082E00E94D2260E94E92691E0D82ED92611
:103C900001C0D12CAC2EA2948FE0A822B12CF5014A
:103CA000EF57FF4F0C940E388C2F807FCF708823F6
:103CB00011F0C295C07F112399F0CC2309F4C8C13B
:103CC00080E28D0F883010F0D11104C08C2F0E943B
:103CD000262703C08C2F0E9439270E94F026B8C1E6
:103CE0008D2F0E94A21DCC2309F42EC280E28D0FDD
:103CF000883010F0D11104C08C2F0E942C2703C0F3
:103D00008C2F0E943F270E94F0261EC28C2F807F9E
:103D1000CF70803211F0C295C07FDD2319F0D13011
:103D2000C9F021C0112371F0002341F0013031F4BA
:103D30000E945F278C2B0E94592706C20E945F2792
:103D40008C2B3FC1002319F0013009F4FDC10E9402
:103D50005C2711C0112321F0023008F0F5C107C023
:103D60000111F2C108C0112321F0011171C18C2F82
:103D700028C101117EC18C2F2AC18C2F8695869572
:103D8000837090E0009719F0019761F0DDC1112375
:103D900021F08D2F9C2F937002C080E090E00E9454
:103DA000F61AE2C1112321F08D2F9C2F937002C0CF
:103DB00080E090E00E940C1BD7C11123F9F0D53FA1
:103DC00051F0D63F71F0D43FA9F4809160069091F4
:103DD000610681600BC080916006909161068260EF
:103DE00005C08091600690916106846090936106A1
:103DF000809360068D2F0E945D2A1EC0D53F51F032
:103E0000D63F71F0D43FA9F480916006909161068D
:103E10008E7F0BC080916006909161068D7F05C0FA
:103E200080916006909161068B7F909361068093EC
:103E300060068D2F0E94C52A0E944A2B95C18C2FA7
:103E4000837009F050C011118BC18D2F829586951A
:103E50008770880F880F9D2F9F70892E912CA12C21
:103E6000B12C082E04C0880C991CAA1CBB1C0A94F7
:103E7000D2F7D4FF14C00FE010E020E030E0B90129
:103E8000A80104C0440F551F661F771F8A95D2F7FB
:103E9000CB01BA01609570958095909503C060E064
:103EA00070E0CB01C695C695C370D0E0C230D10595
:103EB00061F0C330D10581F0682979298A299B29CD
:103EC000219771F00E940B254BC1682979298A2915
:103ED0009B290E941D2544C10E940B25C501B401E8
:103EE0000E94F9243DC1112319F08C2F817001C06B
:103EF0008695882309F434C18D2F82958695877025
:103F0000880F880F9D2F9F70892E912CA12CB12C8A
:103F1000082E04C0880C991CAA1CBB1C0A94D2F75A
:103F2000D4FF14C00FE010E020E030E0B901A80198
:103F300004C0440F551F661F771F8A95D2F7CB0127
:103F4000BA01609570958095909503C060E070E02F
:103F5000CB01C695C695C3704C2F50E04230510539
:103F600069F04330510589F0682979298A299B290C
:103F70004130510571F00E94D025F2C0682979299D
:103F80008A299B290E94E225EBC00E94D025C50109
:103F9000B4010E94BE25E4C08D2F90E0FC01E05EDC
:103FA000F109E531F10508F04FC0EF56FF4F0C94D1
:103FB0000E38DF708C2F8F71112331F00E9457253E
:103FC0008D2F0E94121EC0C00E9478258D2F0E9446
:103FD000191EBAC0112339F00111B6C08C2F8F7190
:103FE0000E949D25B1C0023008F0AEC0F7CF11236A
:103FF00039F08C2F8F710E945725A6C01123C9F369
:104000008C2F8F710E9478259FC0112329F08C2F4F
:104010008F710E94422598C00E943D2595C01123B2
:1040200049F0CF718C2F0E94572563E08C2F0E949E
:10403000C9268AC081E00E94D226023008F484C0DA
:1040400082E00E94D22680C0112331F0002389F241
:104050008D2F0E94691C78C0002391F2D93349F456
:104060005FEF67EE73E0515060407040E1F700C0D1
:1040700000008D2F0E94A21D67C04C2F4F706D2F26
:10408000C7010E9490070E946A246EC0D23FB1F01F
:1040900028F4D03F49F0D13FF9F028C0D43FB9F01F
:1040A00058F0D53F71F022C0112309F447C0909118
:1040B000240481E0892708C081E018271093240494
:1040C0003DC011113BC081E08093240437C0111121
:1040D00035C01092240432C0112329F080912304AA
:1040E000882329F329C0002311F328C080912304D9
:1040F0000023C1F0882341F09091240481E08927B6
:1041000080932404109223048D2F112319F00E9410
:10411000691C14C00E94A21D86E0F70111928A95C5
:10412000E9F70CC0882351F0111108C090912404C4
:1041300081E0892780932404109223044C2F4F7030
:104140006D2FC7010E94550BF8E0AF16B10441F086
:104150005CF04AE0A41AB10852E0A516B10420F4BC
:104160000E94C21A0E94A908DD20E1F00E94C52623
:1041700080FD18C0F70112820E94BF260E945725B9
:10418000C7010E94DE200E94BF26DF91CF911F91C0
:104190000F91FF90EF90DF90BF90AF909F908F9026
:1041A0000C947825DF91CF911F910F91FF90EF90A4
:1041B000DF90BF90AF909F908F9008950F931F93C3
:1041C000CF93DF93EC01888199812B813C81232B54
:1041D000B9F09F3F11F48F3F99F0CE010E94BB08C8
:1041E000882371F0688179818A810E949C268C01E4
:1041F0000E94F4250E94F624B801CE010E94201EE0
:10420000DF91CF911F910F9108950E9446270E9440
:1042100056270E94F0260E94F02B0E944A2B80E035
:1042200090E00E94F61A80E090E00C940C1B8091C4
:104230000801909109010E949D280C9405210E947B
:1042400036270C9417210E949126E92FE295EF70F2
:10425000F0E03297EE30F105B0F4EA55FF4F0C94E0
:104260000E38803F91F018F4803E68F40EC0843F11
:1042700051F40BC0803E48F0813F29F406C093FB07
:10428000882780F9089580E0089581E00895CF930C
:10429000DF9300D000D01F92CDB7DEB70F900F9004
:1042A0000F900F900F90DF91CF910895CF93DF93F0
:1042B00000D000D000D0CDB7DEB726960FB6F89468
:1042C000DEBF0FBECDBFDF91CF9108951F93CF9377
:1042D000DF93C091250416E080912604C81799F059
:1042E000D0E01C9FF0011D9FF00D1124E95DFB4FF4
:1042F0004081518162817381848195810E94562120
:104300002196C770E9CFDF91CF911F910895409119
:104310005704509158046091590470915A04809147
:104320005B0490915C040C94562180915C0482950E
:104330008F7009F054C080915904882309F44FC04C
:1043400080912504A091260460915704709158042F
:1043500040915A0450915B04B6E08A1709F43FC0BB
:1043600090E041155105C1F17F3F11F46F3FA1F17C
:10437000B89FF001B99FF00D1124E95DFB4F218139
:1043800072132AC02081621327C02281211124C008
:10439000238134812417350710F421503109241B5F
:1043A000350B283C3105C0F420915C042F7020614E
:1043B00020935C0426E0289FF001299FF00D112432
:1043C000E45DFB4F80818F708061808387E594E09E
:1043D0000E94DE200C94662101968770BECF08955E
:1043E000CF92DF92EF92FF920F931F93CF93DF93C1
:1043F000CDB7DEB762970FB6F894DEBF0FBECDBF64
:104400008C0185E0F801DE011D9601900D928A95E0
:10441000E1F7D8014C9111965C91119712966C912D
:1044200012971396CD90DC901497309157047091A9
:10443000580480915A0490915B04009709F46BC171
:104440007F3F19F43F3F09F466C1E0905904EE2024
:1044500009F4C0C020915C04C816D90628F0F60102
:10446000E81BF90BCF0104C0809590958C0D9D1D24
:10447000FF24F394883C910578F0F12C207F09F01B
:10448000C6C07C2DD98AC88A89890E94472187E5C0
:1044900094E00E94DE20B1C0822F807F09F046C0E8
:1044A000751314C0341312C0611110C02F70206135
:1044B00020935C040E94872187E594E00E94DE201F
:1044C00080915C04D80115968C932EC0CD2819F1EB
:1044D0005F3F11F44F3FF9F0F62E61111CC080913F
:1044E00025042091260436E0821709F45AC090E092
:1044F000389FF001399FF00D1124E95DFB4F718168
:10450000571306C07081471303C07281711103C035
:1045100001968770E9CFF62E662309F427C18091B2
:104520005C04816080935C04F12C20C1751308C089
:10453000341306C0611104C080915C04D801C3C06B
:104540004D875E878D859E856A8B0E9423216A89AF
:104550008823E1F16623D1F120915C04822F8295BA
:104560008F7090E0029774F08091570490915804F6
:1045700098878F831986DB86CA862C87CE0107969B
:104580000E94DE2086E0F801A7E5B4E001900D92DC
:104590008A95E1F70E9495210E948721FF24F394D8
:1045A000E5C04D875E878D859E850E949126292FC7
:1045B00022952F7030E0223031050CF0CBC09F7077
:1045C00009F0C5C0805E883008F4D0C0C8010E94E0
:1045D000DE20E4CFC816D90608F453C0F601E81B64
:1045E000F90BCF01883C910508F450C0F12C7C2DCB
:1045F000D98AC88A89890E944721E7E5F4E086E0E4
:10460000DF011D928A95E9F70E948721AFC07513DB
:1046100014C0341312C0611110C080915C04F80101
:104620008583C8010E94DE2086E0E7E5F4E0DF0133
:104630001D928A95E9F7FE2C99C04D875E878D857E
:104640009E856A8B0E9423216A89882309F4BECF44
:10465000662309F4BBCF20915C04822F82958F7072
:1046600090E002970CF48ECF8091570490915804FB
:104670009A8389831B82DD82CC822E83CE010196B0
:104680007FCF809590958C0D9D1DACCFF62E662327
:1046900009F49CCF75132EC034132CC020915C04F8
:1046A00020FD1FC0822F82958F70D9F0D8011596FA
:1046B0002C9315978F3049F08F5F982F9295907FAC
:1046C000822F8F70892B15968C93C8010E94DE2053
:1046D00086E0F801A7E5B4E001900D928A95E1F734
:1046E00093CF86E0F801A7E5B4E001900D928A959A
:1046F000E1F73CC04D875E878D859E850E94232112
:10470000811140CF80915C04816080935C04C8017A
:104710000E94DE202BC0662309F458CF4D875E87A8
:104720008D859E850E942321F82E882309F44ECF83
:1047300086E0F801A7E5B4E001900D928A95E1F7D3
:1047400087E594E00E94571C0E9495215DCF81115E
:1047500039CF0CC0243031050CF038CF9F7009F4EC
:1047600031CFF8019581907F09F02CCF8F2D629683
:104770000FB6F894DEBF0FBECDBFDF91CF911F9172
:104780000F91FF90EF90DF90CF9008951F93CF93FC
:10479000DF93CDB7DEB72C970FB6F894DEBF0FBE10
:1047A000CDBF4F83588769877A878B879C87CE01D7
:1047B00007960E94F021882369F08F8198852A85C9
:1047C0003B85232BF1F19F3F09F063C08F3F09F038
:1047D00060C037C086E0FE013796DE011196019079
:1047E0000D928A95E1F76F817885EA85FB85309790
:1047F00041F17F3F11F46F3F21F12091260430E019
:10480000C9010196877099274091250450E08417CB
:10481000950709F447C069837A83FD83EC8396E0AA
:10482000929FD001939FB00D1124A95DBB4FFE0153
:10483000319601900D929A95E1F7809326040E949B
:10484000662116E080912504909126048917C1F114
:10485000189FC0011124895D9B4F0E94F02188237D
:1048600079F1E09125041E9FF0011124E95DFB4FD1
:104870004081518162817381848195810E9456219A
:104880008091250490E001968770992780932504F4
:10489000D9CF4F81588569857A858B859C850E9403
:1048A0005621CFCF0E941F2110922604109225047A
:1048B000E7E5F4E086E0DF011D928A95E9F7C1CFD4
:1048C0002C960FB6F894DEBF0FBECDBFDF91CF910F
:1048D0001F910895EF92FF920F931F93CF93DF9351
:1048E0008C01892B09F46CC0F12CEE24E394E801CF
:1048F0002196F8018491843740F4843008F051C047
:10490000813081F0823019F15BC0853709F444C0F1
:10491000A8F19CE7980F903708F052C08F770E945B
:10492000A21D41C00E5F1F4FFE01C49180E28C0F9B
:10493000883048F4C7708E2D01C0880FCA95EAF7F9
:104940000E94492714C08C2F0E94691C2DC00E5F45
:104950001F4FFE01C49180E28C0F883058F4C7705D
:104960008E2D01C0880FCA95EAF70E944F270E943A
:10497000F0261AC08C2F0E94A21D16C00E5F1F4F7A
:10498000FE01C491CC2381F08FE99FE00197F1F7FC
:1049900000C00000C150F6CF0E5F1F4FFE01F49023
:1049A00003C00E94691C8E018F2D882309F49FCFBC
:1049B000EFE9FFE03197F1F700C000008150F5CF3B
:1049C000DF91CF911F910F91FF90EF90089508957F
:1049D0000C94E7240E94E82460939804709399044F
:1049E00080939A0490939B040C94052108950C9451
:1049F000EA240F931F930091980410919904209139
:104A00009A0430919B04602B712B822B932B1F9166
:104A10000F910C94EA240F931F9300919804109126
:104A2000990420919A0430919B046023712382237E
:104A300093231F910F910C94EA240F931F930091DD
:104A400098041091990420919A0430919B04602756
:104A50007127822793271F910F910C94EA240C94BD
:104A6000E6070E942F256093940470939504809329
:104A70009604909397040C94052160E070E0CB01BC
:104A80000C9431250F931F9341E050E060E070E0FB
:104A90008A019B0104C0000F111F221F331F8A953A
:104AA000D2F7C901B8011F910F910C9431250F93D2
:104AB0001F9341E050E060E070E004C0440F551FD8
:104AC000661F771F8A95D2F7809194049091950480
:104AD000A0919604B09197048A019B01082B192B91
:104AE0002A2B3B2BC901B8011F910F910C94312542
:104AF0000F931F9341E050E060E070E004C0440F6A
:104B0000551F661F771F8A95D2F74095509560957F
:104B100070958091940490919504A0919604B09121
:104B200097048A019B01082319232A233B23C901E7
:104B3000B8011F910F910C9431250F931F9341E001
:104B400050E060E070E004C0440F551F661F771FFF
:104B50008A95D2F78091940490919504A09196043F
:104B6000B09197048A019B01082719272A273B2720
:104B7000C901B8011F910F910C9431250F931F9318
:104B8000009194041091950420919604309197041B
:104B9000602B712B822B932B1F910F910C9431253D
:104BA0000F931F9300919404109195042091960403
:104BB0003091970460237123822393231F910F91D7
:104BC0000C9431250F931F93009194041091950438
:104BD00020919604309197046027712782279327AC
:104BE0001F910F910C9431250895292F220F920FB8
:104BF000990F890FA82FA695A695A695877051E0C5
:104C000001C0550F8A95EAF785E0A89FD0011124CD
:104C100020E030E070E0F901EA0FFB1FE35AFB4FA0
:104C20004081CB01022E02C0969587950A94E2F747
:104C300081709927819584278523842780832F5F1E
:104C40003F4F2530310539F70895292F220F920F54
:104C5000990F890F682F669566956695982F9770BE
:104C600085E0689FB001112440E050E080E0FA0147
:104C7000E60FF71FE35AFB4F208130E0092E02C0F8
:104C8000369527950A94E2F721703327042E01C048
:104C9000220F0A94EAF7822B4F5F5F4F4530510590
:104CA00031F70895CF92DF92EF92FF920F931F9307
:104CB000CF93DF938C01C0909804D0909904E0903A
:104CC0009A04F0909B048091940490919504A09193
:104CD0009604B0919704C82AD92AEA2AFB2ACFE180
:104CE000D0E0D701C6010C2E04C0B695A7959795C4
:104CF00087950A94D2F780FF06C0B8018C2F0E94D6
:104D0000700B019721F4219760F780E001C08C2F90
:104D1000DF91CF911F910F91FF90EF90DF90CF9097
:104D20000895CF93DF93EC010E945226BE010E94AA
:104D3000700BDF91CF9108951F93CF93DF93EB0119
:104D400090912204992321F0CB010E94912613C057
:104D5000882349F0CB010E945226182F682FCE01DC
:104D60000E94F52504C0CB010E942526182FBE0104
:104D7000812F0E94700BDF91CF911F910895809138
:104D80009C04859585958595089580919C048770F0
:104D9000089598E0899F90011124262B20939C046C
:104DA0000C94572520919C048095822380939C0429
:104DB000982F977069F430E0482F082E000C550B9F
:104DC0002417350729F08595859585950C947825C8
:104DD000089590919C04977081E009F480E0089513
:104DE000E0910801F09109018091C0048083E09175
:104DF0000801F091090190818091BF04892B808383
:104E0000E0910801F091090190818091BE04892B05
:104E1000808380919D04882381F0E0910801F091C6
:104E200009019081892B808380910801909109016B
:104E30000E942228811110929D0480910801909176
:104E400009010C94CE1A8091C00408959091C00479
:104E5000892B8093C004089580959091C004892384
:104E60008093C00408958093C00408951092C004F4
:104E700008959091BF04892B8093BF040895809575
:104E80009091BF0489238093BF0408951092BF04BA
:104E900008959091BE04892B8093BE040895809557
:104EA0009091BE0489238093BE0408951092BE049D
:104EB000089580939D04089510929D040895809113
:104EC0009D040895CF92DF92EF92FF926C01EE2441
:104ED000FF24C114D104E104F10421F0C701B6019B
:104EE00020E101C020E0C72ED82EE92EFF24C114F6
:104EF000D104E104F10419F0285FC701B6016B0188
:104F00007C0154E0F694E794D794C7945A95D1F76E
:104F1000C114D104E104F10419F02C5FC701B601FA
:104F20006B017C0142E0F694E794D794C7944A95CC
:104F3000D1F7C114D104E104F10419F02E5FC701C7
:104F4000B601DC01CB01B695A79597958795892B7E
:104F50008A2B8B2B09F02F5F822FFF90EF90DF9031
:104F6000CF90089580E090E00E947E3821E08D3E51
:104F70009E4F09F020E0822F089582E090E00C948B
:104F8000703883E090E00C94703884E090E00C94EA
:104F90007038682F84E090E00C948438AB01BC0139
:104FA0008FE090E00C949638AB01BC0183E190E077
:104FB0000C94963860E070E0CB010C94D42760E04C
:104FC00070E0CB010E94CE270C94DA276DEE7EEFC5
:104FD00080E090E00E94A23860E082E090E00E94D1
:104FE000843860E083E090E00E9484381092980456
:104FF0001092990410929A0410929B0460E084E04D
:1050000090E00E94843860E085E090E00E9484385F
:1050100060E086E090E00E9484386FEF87E090E0E7
:105020000E94843840E050E0BA0188E090E00E949D
:10503000963860E08DE090E00E9484380C94DF2781
:105040000C94E627FC01329680911901882331F0F7
:105050008091660687FF02C09EE101C096E080E075
:10506000915028F021912223D9F38F5FF9CF089531
:105070009C01FC0132969FEF80E04191461789F038
:105080009F3F19F4411101C0982F8F5F8630A9F717
:105090009F3F39F0F901E90FF11D97FDFA95628301
:1050A00008950895FC01329608962081261301C0C8
:1050B00010823196E817F907C1F70895262F269533
:1050C000269526952E3168F4FC01E20FF11D6770DC
:1050D00021E030E001C0220F6A95EAF78281282B97
:1050E00022830895262F2695269526952E3170F435
:1050F000FC01E20FF11D677021E030E001C0220FDA
:105100006A95EAF7209582812823228308952091C9
:105110001901222329F02091660627FD0C945E28B0
:105120000C94382820911901222329F02091660639
:1051300027FD0C9472280C94522820911901FC012F
:105140003296222331F08091660687FF02C08EE1FD
:1051500001C086E0DF011D928A95E9F70895089560
:105160000C94AF280E94B02880916C06843049F1DD
:105170001092C20420E488E190E00FB6F894A8955C
:10518000809360000FBE2093600080E00E94A90819
:105190000E94B02883B7817F846083BF83B781601A
:1051A00083BF7894889583B78E7F83BF0FB6F894BA
:1051B000A8958091600088618093600010926000E3
:1051C0000FBE08950895CF930E943B050E94E40509
:1051D0000E94E228C0E08C2F0E942C06811104C09E
:1051E000CF5FCE30C1F701C081E0CF91089508951F
:1051F0000C94F7280E941F210E94C21A0E94A9083D
:105200000C94F8281F920F920FB60F9211248F93CF
:105210009F93AF93BF938091C204811113C080917B
:10522000620690916306A0916406B091650641966E
:10523000A11DB11D8093620690936306A09364063E
:10524000B0936506BF91AF919F918F910F900FBE64
:105250000F901F90189582E084BD93E095BD9AEF62
:1052600097BD80936E0008952FB7F89480916206E1
:1052700090916306A0916406B09165062FBF0895D2
:10528000CF92DF92EF92FF920F931F932FB7F89474
:1052900040916206509163066091640670916506C4
:1052A0002FBF6A017B01EE24FF248C0120E030E057
:1052B000C016D106E206F30610F4415051099A01D6
:1052C000281B390BC9011F910F91FF90EF90DF90C0
:1052D000CF90089578941F920F920FB60F921124D9
:1052E0008F939F93AF93BF938091620690916306D3
:1052F000A0916406B09165060196A11DB11D809331
:10530000620690936306A0936406B0936506BF910E
:10531000AF919F918F910F900FBE0F901F90189596
:10532000F89481E08093E00080E28093D800E9EC7B
:10533000F0E010828FE19EE40197F1F700C00000D9
:105340001DBA109268001CBC10BE1FBA10927A00E1
:1053500010926E0010926F00109271001092720005
:105360001082ECEBF0E0108214B817B81AB81DB830
:1053700010BA108215B818B81BB81EB811BA0C9420
:10538000003F08950E94B227811102C00E94202888
:105390000E94BD278093C1040E94C52790E090938E
:1053A0006706809366060E94C127682F70E080E040
:1053B00090E00C94F7248091C60480FF0BC06091AC
:1053C0000D0185E0689FB00111247595679575956D
:1053D00067952BC081FF09C060910D0185E0689F32
:1053E000B00111247595679520C082FF07C06091B8
:1053F0000D0185E0689FB001112417C09091C7048A
:105400009923D1F060910C01961788F720910D0136
:1054100085E0289F90011124929FA001939F500D39
:10542000112470E0CA010E94FA376038710540F417
:105430006115710539F002C065E070E0862F0895AE
:105440008FE7089581E008958091C60480FF08C029
:1054500060910B0170E0759567957595679521C012
:1054600081FF06C060910B0170E07595679519C0CA
:1054700082FF04C060910B0170E010C09091C704DE
:105480009923C1F060910A019617A0F780910B0152
:10549000899FC001112470E00E94FA3760387105BD
:1054A00028F46115710521F0862F08958FE708957E
:1054B00081E0089561E070E0F4CF803F21F40E9424
:1054C000DB29819504C0813F29F40E94DB29809368
:1054D000CB040895823F21F40E94DB29819504C00A
:1054E000833F29F40E94DB298093CA040895893FF1
:1054F00019F40E94242A05C08A3F31F40E94242A0C
:1055000081958093CC0408958B3F21F40E94242A36
:10551000819504C08C3F29F40E94242A8093CD04F5
:105520000895843F21F48091C904816017C0853FAC
:1055300021F48091C904826011C0863F21F48091DA
:10554000C90484600BC0873F21F48091C90488603E
:1055500005C0883F31F48091C90480618093C904FB
:1055600008958D3F21F48091C60481600BC08E3F69
:1055700021F48091C604826005C08F3F29F4809198
:10558000C60484608093C6040895803F39F48091F6
:10559000CB0487FF6CC01092CB0469C0813F29F413
:1055A0008091CB041816BCF362C09091CA04823F6C
:1055B00029F497FF5CC01092CA0459C0833F19F4C4
:1055C0001916CCF354C0893F41F48091CC041816CD
:1055D0000CF04DC01092CC044AC08A3F29F480914F
:1055E000CC0487FF44C0F6CF8B3F39F48091CD04C3
:1055F00087FF3DC01092CD043AC08C3F29F48091C2
:10560000CD041816BCF333C0843F21F48091C90443
:105610008E7F17C0853F21F48091C9048D7F11C012
:10562000863F21F48091C9048B7F0BC0873F21F412
:105630008091C904877F05C0883F31F48091C904F7
:105640008F7E8093C90413C08D3F21F48091C604DE
:105650008E7F0BC08E3F21F48091C6048D7F05C0E4
:105660008F3F29F48091C6048B7F8093C60480917C
:10567000CA0481110EC08091CB0481110AC08091AF
:10568000CC04811106C08091CD04811102C010921A
:10569000C704089588EC94E00E94E81A0E94342917
:1056A0009093C4048093C30408951F93CF93DF9312
:1056B0008091C3049091C4040E944029AC01909150
:1056C000C704992321F020910E0130E006C02091FB
:1056D000C5048AE0289F900111244217530708F45B
:1056E0007BC08091CA04C091CB04D091CC041091AE
:1056F000CD04811107C0C1116BC0D11169C0111156
:1057000067C06AC09F3F19F09F5F9093C704181647
:1057100024F40E94DB298093CA048091CA0487FF85
:1057200005C00E94DB2981958093CA041C1624F4CD
:105730000E94DB298093CB048091CB0487FF05C0B6
:105740000E94DB2981958093CB043091CA043323D6
:10575000E1F02091CB042223C1F045EB3403C001DA
:105760001124892F990F990B009709F481E08093F8
:10577000CA0435EB2303C0011124892F990F990B1B
:10578000009709F481E08093CB041D1624F40E9455
:10579000242A8093CC048091CC0487FF05C00E940A
:1057A000242A81958093CC04111624F40E94242A83
:1057B0008093CD048091CD0487FF05C00E94242AE8
:1057C00081958093CD04DF91CF911F910C944A2B4A
:1057D0009F3F09F099CFA1CFDF91CF911F910895FD
:1057E000E8ECF4E086E0DF011D928A95E9F710927B
:1057F000C7041092C6040895833081F128F48130E3
:1058000059F08230D1F00895853009F449C0B8F1DB
:10581000863009F456C008958091C504262F30E0E3
:10582000280F311D2F3F310524F4680F6093C50404
:1058300008958FEF8093C504089580910E01262F5F
:1058400030E0280F311D2F3F310524F4680F60939D
:105850000E0108958FEF80930E01089580910D0140
:10586000262F30E0280F311D2F3F310524F4680F1B
:1058700060930D0108958FEF80930D01089580913D
:105880000C01262F30E0280F311D2F3F310524F465
:10589000680F60930C0108958FEF80930C010895B9
:1058A00080910B01262F30E0280F311D2F3F31054D
:1058B00024F4680F60930B0108958FEF80930B0120
:1058C000089580910A01262F30E0280F311D2F3FC7
:1058D000310524F4680F60930A0108958FEF8093D7
:1058E0000A010895833011F128F4813049F08230A3
:1058F00091F00895853081F120F18630C1F108954D
:105900008091C504681720F4861B8093C504089510
:105910001092C504089580910E01681720F4861B2B
:1059200080930E01089510920E01089580910D014B
:10593000681720F4861B80930D01089510920D01C5
:10594000089580910C01681720F4861B80930C0148
:10595000089510920C01089580910B01681720F4AE
:10596000861B80930B01089510920B01089580917E
:105970000A01681720F4861B80930A01089510928B
:105980000A0108950F931F93873208F04DC08E319E
:1059900008F093C0803109F47DC008F5873009F420
:1059A0006BC068F4863009F0A3C08091C104817F88
:1059B0008E7F8093C10481E08093CF049AC08B30A6
:1059C00009F48FC08E3009F093C08091C10482FB2E
:1059D000222720F991E0922790FB82F964C086315A
:1059E00009F47FC088F4813109F082C00E941F2130
:1059F0008091660687FB222720F991E0922790FB91
:105A000087F9809366066DC0893109F46AC08B31CD
:105A100009F06EC08091C10481FB222720F991E03A
:105A2000922790FB81F93FC0883309F45AC050F4A3
:105A3000893209F458C0853309F455C0873209F416
:105A400052C056C0833409F44EC028F48A3308F497
:105A50004FC0895333C0883409F04AC00E941F21C7
:105A60000FEF13ED20E3015010402040E1F700C09C
:105A700000000E94902935C08091C104982F909514
:105A8000917090FB80F98093C10491112AC0897FA5
:105A9000877F10C08091C10483FB222720F991E009
:105AA000922790FB83F98093C1049923D1F08091D0
:105AB000C10481608093C10414C08D5141E050E065
:105AC00060E070E08A019B0104C0000F111F221FDB
:105AD000331F8A95D2F7C901B8010E94F7240E94AA
